:100000000C947B000C9449160C9476160C94A30067
:100010000C94A3000C94A3000C94A3000C94A300D4
:100020000C94A3000C94A3000C94A3000C94A300C4
:100030000C94A3000C94A3000C94A3000C94A300B4
:100040000C94620A0C94A3000C946A0D0C94970E05
:100050000C945D0E0C94A3000C94A3000C94A300CC
:100060000C94A3000C94A3002F053305C705D205FB
:10007000EB050C062906084AD73B3BCE016E84BC33
:10008000BFFDC12F3D6C74319ABD56833DDA3D00F2
:10009000C77F11BED9E4BB4C3E916BAAAABE00003B
:1000A00000803F000103040600000000000000077C
:1000B000000200000000000040020408102001803F
:1000C00001020408102001020408102004020202A8
:1000D00002020404020404040404030303030303EC
:1000E00000000000250028002B0000000000240074
:1000F00027002A000D0F11241FBECFEFD8E0DEBF6E
:10010000CDBF11E0A0E0B1E0E2E1F5E302C005906F
:100110000D92A438B107D9F723E0A4E8B1E001C0FB
:100120001D92AE32B207E1F710E0CBE7D0E004C099
:100130002197FE010E94691ACA37D107C9F70E94A8
:1001400005160C94871A0C9400002F923F924F9240
:100150005F926F927F928F929F92AF92BF92CF9257
:10016000DF92EF92FF920F931F93CF93DF9300D014
:1001700000D0CDB7DEB76B017C015A01190177249D
:100180007394402E512C81E0481A5108872C912CF1
:100190008401000F111F000F111F9501200F311F47
:1001A000D9018D919D910D90BC91A02D89839A8349
:1001B000AB83BC839C01AD01C701B6010E945A19F3
:1001C00018160CF45AC0B1E08B1AB0EC9B0A880CDC
:1001D000991C880C991CF501E80DF91D408051808F
:1001E00062807380F101E80DF91D80809180A2800A
:1001F000B380A3019201C701B6010E9438176B01B9
:100200007C01F101E00FF11FA50194016081718172
:10021000828193810E9438179B01AC01C701B6010E
:100220000E9467196B017C01A301920169817A81A7
:100230008B819C810E9438179B01AC01C701B601DC
:100240000E94D917A50194010E9439170F900F90B1
:100250000F900F90DF91CF911F910F91FF90EF9032
:10026000DF90CF90BF90AF909F908F907F906F90D6
:100270005F904F903F902F900895841495040CF058
:10028000A2CF739483CFCF92DF92EF92FF920F931E
:100290001F93CF93DF93EC0100E010E0C12CD12C31
:1002A00076010C171D0784F484E192E00E94760B1E
:1002B000082E000C990BAA0BBB0BC80ED91EEA1E08
:1002C000FB1E0F5F1F4FEDCFC701B6010E948318C1
:1002D0006B017C01BE01DD0F880B990B0E94831816
:1002E0009B01AC01C701B6010E94D91726E636E68C
:1002F00046EE5FE30E94671920E030E040E052E400
:100300000E943917DF91CF911F910F91FF90EF90CD
:10031000DF90CF900895CF92DF92EF92FF920F93EC
:100320001F93CF93DF93EC0100E010E0C12CD12CA0
:1003300076010C171D0784F484E192E00E94760B8D
:10034000082E000C990BAA0BBB0BC80ED91EEA1E77
:10035000FB1E0F5F1F4FEDCFC701B6010E94831830
:100360006B017C01BE01DD0F880B990B0E94831885
:100370009B01AC01C701B6010E94D91726E636E6FB
:1003800046EE5FE30E94671920E030E040E052E46F
:100390000E943917DF91CF911F910F91FF90EF903D
:1003A000DF90CF9008952F923F924F925F926F927D
:1003B0007F928F929F92AF92BF92CF92DF92EF92F5
:1003C000FF920F931F93CF93DF93CDB7DEB727979D
:1003D0000FB6F894DEBF0FBECDBF1C0100E010E0E9
:1003E000C12CD12C76012601370146015701021597
:1003F0001305ECF584E192E00E94AA0B29833A836D
:100400004B835C836D837E8369817A81072E000C28
:10041000880B990B0E9483189B01AC01C501B401A4
:100420000E9439174B015C016B817C81072E000C07
:10043000880B990B0E9483189B01AC01C301B20188
:100440000E9439172B013C016D817E81072E000C23
:10045000880B990B0E9483189B01AC01C701B60160
:100460000E9439176B017C010F5F1F4FC0CFA501A0
:100470009401C501B4010E9467194B015C01A701F9
:100480009601C701B6010E9467199B01AC01C50125
:10049000B4010E9439170E94DA199B01AC01C30113
:1004A000B2010E94D9170E94A51723E333E345E662
:1004B00052E40E94671927960FB6F894DEBF0FBE6C
:1004C000CDBFDF91CF911F910F91FF90EF90DF9003
:1004D000CF90BF90AF909F908F907F906F905F90E4
:1004E0004F903F902F9008950F932FE632E143E80D
:1004F0005AE30E94671904E028E131E042E951E043
:100500000E94A50020E030E04AE754E40E94671909
:100510000F910895CF92DF92EF92FF920F931F9366
:10052000CF93DF93CDB7DEB760970FB6F894DEBFF9
:100530000FBECDBFC0900401D0900501E090060130
:10054000F0900701C986DA86EB86FC8600E010E0B1
:1005500020EC3FE30D871E872F87388BC12CD12CD1
:1005600040E8E42E4FE3F42EC982DA82EB82FC826B
:100570000D831E832F8338872FE632E143E85AE349
:100580000E94671902E09E012F5F3F4FAE01475F57
:100590005F4F0E94A50020E030E04AE754E40E944B
:1005A000671960960FB6F894DEBF0FBECDBFDF911E
:1005B000CF911F910F91FF90EF90DF90CF90089512
:1005C0008F929F92AF92BF92CF92DF92EF92FF9263
:1005D000CF93DF936B017C01C8E0D1E028813981A2
:1005E0004A815B810E946719A70196010E946719E1
:1005F000A70196010E9467194B015C012C813D8186
:100600004E815F81C701B6010E946719A70196015B
:100610000E9467199B01AC01C501B4010E94391702
:100620004B015C01288539854A855B85C701B60188
:100630000E9467199B01AC01C501B4010E943917E2
:100640002C853D854E855F850E943917DF91CF91BE
:10065000FF90EF90DF90CF90BF90AF909F908F90E2
:10066000089561E084E192E00E94940C61E084E1ED
:1006700092E00E94900C65ED71E084E192E00E94AE
:100680007A0C80E090E0FC01E655FE4FDC01AB52B5
:10069000BE4F1C962C91208301968431910599F7C9
:1006A0009093A7018093A60184E58093AA0189E62F
:1006B0008093AB018CE68093AC0184E78093AD011D
:1006C0006091AE017091AF0180E090E00E948118CE
:1006D0002FE632E143E85AE30E94671960939201E2
:1006E0007093930180939401909395016091B00170
:1006F0007091B10180E090E00E9481182FE632E114
:1007000043E85AE30E94671960939601709397013A
:1007100080939801909399016091B2017091B30117
:1007200080E090E00E9481182FE632E143E85AE32E
:100730000E94671960939A0170939B0180939C01BA
:1007400090939D016091B4017091B50180E090E0BB
:100750000E9481182FE632E143E85AE30E946719AC
:1007600060939E0170939F018093A0019093A101DB
:100770006091B6017091B70180E090E00E9481180D
:100780002DEC3CEC4CEC5DE30E94671920E030E07E
:1007900040E251E40E9438176093A2017093A301D4
:1007A0008093A4019093A5018091DB019091DC01DD
:1007B0009093A9018093A801089584EF91E090930C
:1007C000D6018093D50184E190E09093D801809385
:1007D000D70183E08093D90181E08093DA01809191
:1007E000A8019091A9019093DC018093DB01109204
:1007F000DE011092DD011092E0011092DF0180E035
:1008000090E0FC01EB52FE4FDC01A655BE4F2C914F
:100810002487019684319105A1F79093A7018093D5
:10082000A60184E18093F50108950F931F93CF9360
:10083000DF938C01EB010E94DD03E5EDF1E0118710
:100840000087D387C2871F928DB79EB781970FB657
:10085000F8949EBF0FBE8DBFADB7BEB7119681E2B3
:1008600001900D928A95E1F784E192E00E947E0C5E
:100870008DB79EB782960FB6F8949EBF0FBE8DBF00
:10088000DF91CF911F910F910895CF93DF9384E172
:1008900092E00E94880BC3E0D0E089319140B8F02B
:1008A00068EC70E080E090E00E94DD0A20E04FEF0D
:1008B00060E084E192E00E94E20B20E040E060E032
:1008C00084E192E00E94E20B219751F716C068EC98
:1008D00070E080E090E00E94DD0A20E040E06FEFF1
:1008E00084E192E00E94E20B20E040E060E084E1DD
:1008F00092E00E94E20B219751F7DF91CF9108958A
:100900001092D4011092D30120E030E0A90164E0FC
:1009100084E192E00E94250C20E040E060E084E168
:1009200092E00C94E20B2F923F924F925F926F9263
:100930007F928F929F92AF92BF92CF92DF92EF926F
:10094000FF920F931F93CF93DF93CDB7DEB7A3979B
:100950000FB6F894DEBF0FBECDBF84E192E00E94D7
:10096000460B20E040E060E0882309F4A3C184E165
:1009700092E00E94E20B88E090E00E9443010E9416
:10098000521870E080E090E00E9481182091A2014E
:100990003091A3014091A4015091A5010E94391703
:1009A0000E9452189B01AC0162E084E192E00E9437
:1009B000250C80E190E00E94D3010E94E0020E9499
:1009C00074020E948A0220E030E040E05FE30E946F
:1009D00039170E9452189B01AC0163E084E192E058
:1009E0000E94250C20E04FEF60E084E192E00E943D
:1009F000E20B20E040E060E084E192E00E94E20B44
:100A0000C090D301D090D4010D2C000CEE08FF084B
:100A100064E084E192E00E945A0CC616D706E8060C
:100A2000F90681F064E084E192E00E945A0C709330
:100A3000D4016093D3012FEF40E060E084E192E0C5
:100A40000E94E20BE091D301F091D4013197E7309D
:100A5000F10508F02AC1EC5CFF4F0C94691A2AE0FA
:100A60004EEA51E01AC145E064E172E0CE01099618
:100A70000E94460C85E1FE013996AEEBB1E0019093
:100A80000D928A95E1F780E090E0FC01E655FE4F7B
:100A9000DC01A254BE4F11962C9124830196803123
:100AA000910599F76091AE017091AF0180E090E0FF
:100AB0000E9481182FE632E143E85AE30E94671949
:100AC00060939201709393018093940190939501A8
:100AD0006091B0017091B10180E090E00E948118B6
:100AE0002FE632E143E85AE30E94671960939601CA
:100AF0007093970180939801909399016091B2014E
:100B00007091B30180E090E00E9481182FE632E1FD
:100B100043E85AE30E94671960939A0170939B011E
:100B200080939C0190939D016091B4017091B501F7
:100B300080E090E00E9481182FE632E143E85AE31A
:100B40000E94671960939E0170939F018093A0019A
:100B50009093A1016091B6017091B70180E090E09F
:100B60000E9481182DEC3CEC4CEC5DE30E9467196F
:100B700020E030E040E251E40E9438176093A20187
:100B80007093A3018093A4019093A5018BC08091E1
:100B9000A90189838091A8018A8322E0AE014F5F79
:100BA0005F4F7BC045E064E172E0CE0109960E9490
:100BB000460C85E1FE013996AEEBB1E001900D9255
:100BC0008A95E1F78091BF019091C0019093A901AE
:100BD0008093A80167C00E94DD0381E08F932DB749
:100BE0003EB7215231090FB6F8943EBF0FBE2DBF5C
:100BF000ADB7BEB7119681E2E5EDF1E001900D923F
:100C00008A95E1F784E192E00E947E0C0FB6F89499
:100C1000DEBF0FBECDBF46C080E190E00E94D30191
:100C200069837A838B839C8380E090E0E5E0F0E049
:100C3000EC0FFD1FE80FF91FA1E0B0E0AC0FBD1FE6
:100C4000A80FB91F2C91208301968430910571F76C
:100C50001CC080E190E00E948B0169837A838B83C2
:100C60009C8380E090E0E5E0F0E0EC0FFD1FE80FF2
:100C7000F91FA1E0B0E0AC0FBD1FA80FB91F2C9168
:100C8000208301968430910571F79093A70180939A
:100C9000A60124E0AE014B5F5F4F65E084E192E086
:100CA0000E94F80B0E948004F4C344EF51E060E01E
:100CB00070E0EBC384E192E00E94E20B88E090E0F8
:100CC0000E9443012B013C0180E190E00E94D3018E
:100CD000162F072F382E292E262F372F482F592F22
:100CE00060918A0170918B0180918C0190918D01AE
:100CF0000E9438176B017C0120E030E0A9010E94BE
:100D00005A1918165CF420E030E040E85EE3C701B1
:100D1000B6010E94D41787FF77C00BC020E030E0F7
:100D200040E85EEBC701B6010E945A1918160CF094
:100D30006BC0812F902FA32DB22D80938A019093A9
:100D40008B01A0938C01B0938D0180918901811159
:100D500008C040E25EE460E070E084E192E00E945E
:100D6000B20C20E030E0A901612F702F832D922D6D
:100D70000E945A191816CCF420E030E046E952E4FB
:100D8000612F702F832D922D0E945A191816CCF0C6
:100D900020E030E046E952E4612F702F832D922D40
:100DA0000E94D41787FF55C047C020E030E046E9D5
:100DB00052EC612F702F832D922D0E94D41787FF44
:100DC00023C084E192E00E945E0B8823C1F060E0C2
:100DD00084E192E00E943F0B1092890183E090E051
:100DE000909301018093000110928E0110928F0167
:100DF000109290011092910182E08093880140E36B
:100E000055E760E070E041C320E030E0A901612FC8
:100E1000702F832D922D0E945A1918160CF4B8CFFA
:100E200020E030E046E952EC612F702F832D922DA7
:100E30000E945A1918166CF484E192E00E945E0B2D
:100E4000811107C00E94450461E084E192E00E94A4
:100E50003F0B812F902FA32DB22D80938A01909369
:100E60008B01A0938C01B0938D01612F702F832D86
:100E7000922D0E94E0024B015C018091A2019091B1
:100E8000A301A091A401B091A5018E8F9F8FA8A36B
:100E9000B9A320E030E040E251ECBC01CD010E945A
:100EA000D417811107C282E0809388018091890163
:100EB000813051F120F0823009F47AC1B9C205E0E5
:100EC00010E068EC70E080E090E00E94DD0A20E035
:100ED0004FEF6FEF84E192E00E94E20B20E040E0F0
:100EE00060E084E192E00E94E20B0150110949F7B1
:100EF00083E090E09093010180930001809189014B
:100F00008F5F8093890194C220E030E0A901C7017E
:100F1000B6010E945A1918165CF420E030E040E057
:100F20005FE3C701B6010E94D41787FFDFC00BC083
:100F300020E030E040E05FEBC701B6010E945A19A3
:100F400018160CF0D3C020E030E040E85FE3609179
:100F50008E0170918F0180919001909191010E947A
:100F600039179B01AC01612F702F832D922D0E94A8
:100F70005A1918160CF0BAC0809100019091010125
:100F8000DC01AA0FBB1FAA0FBB1FBF8FAE8FFD01D5
:100F9000E85CFE4F2081318142815381612F702FA7
:100FA000832D922D0E94D41787FFA0C0EE8DFF8D58
:100FB000E85DFE4F2081318142815381612F702F86
:100FC000832D922D0E945A1918160CF08FC0A12C57
:100FD000B12C312C212C05E010E080E190E00E9442
:100FE000D3012DEC3CEC4CE45EE30E9467199B01BD
:100FF000AC01B501832D922D0E9439175B01382E6B
:10100000292E68EC70E080E090E00E94DD0A2FEF6E
:1010100040E060E084E192E00E94E20B20E040E0EA
:1010200060E084E192E00E94E20B01501109A9F610
:101030001A2D0B2D8A2D9B2DA32DB22D80938E0161
:1010400090938F01A0939001B09391016A2D7B2D15
:10105000832D922D0E94E0024B015C01E091000182
:10106000F0910101FF8FEE8F20E030E040E05FE380
:101070000E9439170E945218EE8DFF8DEE0FFF1F50
:10108000E255FE4F718360832E8D3F8D220F331FFB
:10109000220F331FA9014E565E4F5BA34AA380E087
:1010A00090E00E9481182FE632E143E85AE30E9463
:1010B0006719AAA1BBA16D937D938D939C93139700
:1010C0008E8D9F8D0197909301018093000197FF72
:1010D0000DC0109284011092850110928601109229
:1010E0008701809189018F5F809389018091000140
:1010F0009091010103970CF09BC120E030E0A90121
:10110000C701B6010E945A1918165CF420E030E0BD
:1011100040E050E4C701B6010E94D41787FF88C1A0
:101120000BC020E030E040E050ECC701B6010E9467
:101130005A1918160CF07CC1C0908E01D0908F0106
:10114000E0909001F090910120E030E040E05FE31A
:10115000C701B6010E9439179B01AC01612F702FA6
:10116000832D922D0E94D41787FF62C120E030E0CA
:1011700040E05FE3C701B6010E9438179B01AC0154
:10118000612F702F832D922D0E945A1918160CF082
:101190004FC120E04FEF60E084E192E00E94E20B5B
:1011A00020E040E060E084E192E00E94E20B40C178
:1011B0008091840190918501A0918601B091870171
:1011C0000196A11DB11D8093840190938501A09388
:1011D0008601B09387014091480150914901052E45
:1011E000000C660B770B481759076A077B0708F056
:1011F0001FC1A301920160914A0170914B0180913E
:101200004C0190914D010E94381720E030E040E2FF
:1012100051E40E9439170E94521880E090E00E9429
:10122000811820E030E040E251E40E9467190E94FA
:1012300052187093B7016093B60180E090E00E946D
:1012400081182DEC3CEC4CEC5DE30E94671920E02A
:1012500030E040E251E40E9438176093A20170939D
:10126000A3018093A4019093A5010E94DD0381E076
:101270008F93EDB7FEB7B1970FB6F894FEBF0FBED0
:10128000EDBFADB7BEB7119681E2E5EDF1E001909B
:101290000D928A95E1F784E192E00E947E0C8091A4
:1012A00089018F5F809389010FB6F894DEBF0FBE6E
:1012B000CDBFBEC0C501B4010E9474024B015C01E8
:1012C0002E8D3F8D48A159A1C301B2010E9439174B
:1012D0002B013C0180918801882319F08130D9F0DD
:1012E000A7C005E010E068EC70E080E090E00E94AC
:1012F000DD0A2FEF40E06FEF84E192E00E94E20B05
:1013000020E040E060E084E192E00E94E20B0150C6
:10131000110949F788C020E030EC4DE754E4C501DD
:10132000B4010E94D41787FF71C020E030E446E783
:1013300054E4C501B4010E945A1918160CF066C095
:1013400020E030E0A901C701B6010E945A19181621
:101350005CF420E030E040E05FE3C701B6010E94AA
:10136000D41787FF53C00BC020E030E040E05FEBB4
:10137000C701B6010E945A1918160CF047C0C12CBB
:10138000D12C760105E010E080E190E00E94D301CD
:101390002DEC3CEC4CE45EE30E9467199B01AC0130
:1013A000C701B6010E9439176B017C0168EC70E03F
:1013B00080E090E00E94DD0A2FEF40E060E084E1F1
:1013C00092E00E94E20B20E040E060E084E192E0E5
:1013D0000E94E20B01501109B9F6C701B6010E9443
:1013E000E0020E9474022FE632E143E85AE30E94D1
:1013F000671960930401709305018093060190932F
:101400000701809188018F5F80938801809102019C
:10141000909103019C0121503109309303012093E5
:10142000020197FF05C0809188018F5F809388013A
:1014300080918901833071F420E04FEF60E084E116
:1014400092E00E94E20B20E040E060E084E192E064
:101450000E94E20BC501B4010E948A0220E030E044
:1014600040E05FE30E9439170E944B186B017C013A
:10147000C301B2010E944B18DC01CB01B6010E94EE
:10148000150440E157E260E070E084E192E00E94E0
:10149000B20CA3960FB6F894DEBF0FBECDBFDF919E
:1014A000CF911F910F91FF90EF90DF90CF90BF9061
:1014B000AF909F908F907F906F905F904F903F90F4
:1014C0002F9008951F920F920FB60F9211242F9311
:1014D0003F938F939F93AF93BF938091F701909128
:1014E000F801A091F901B091FA013091F60126E0DE
:1014F000230F2D3720F40296A11DB11D05C029E848
:10150000230F0396A11DB11D2093F6018093F701CF
:101510009093F801A093F901B093FA018091FB0137
:101520009091FC01A091FD01B091FE010196A11DD9
:10153000B11D8093FB019093FC01A093FD01B0933A
:10154000FE01BF91AF919F918F913F912F910F908D
:101550000FBE0F901F9018952FB7F8946091F70168
:101560007091F8018091F9019091FA012FBF0895CF
:101570003FB7F8948091FB019091FC01A091FD018F
:10158000B091FE0126B5A89B05C02F3F19F001962A
:10159000A11DB11D3FBFBA2FA92F982F8827820FF9
:1015A000911DA11DB11DBC01CD0143E0660F771F48
:1015B000881F991F4A95D1F70895CF92DF92EF9235
:1015C000FF92CF93DF936B017C010E94B80AEB017D
:1015D000C114D104E104F10479F00E94B80A6C1B33
:1015E0007D0B683E7340A0F381E0C81AD108E10882
:1015F000F108C851DC4FECCFDF91CF91FF90EF9015
:10160000DF90CF900895789484B5826084BD84B5CE
:10161000816084BD85B5826085BD85B5816085BDED
:10162000EEE6F0E0808181608083E1E8F0E0108206
:10163000808182608083808181608083E0E8F0E047
:10164000808181608083E1EBF0E080818460808331
:10165000E0EBF0E0808181608083EAE7F0E0808168
:1016600084608083808182608083808181608083C8
:101670008081806880831092C1000895089520E0E1
:1016800030E0A9018EE192E00C94AD11CF93DF938D
:1016900000D0CDB7DEB7BE016F5F7F4F8EE192E025
:1016A0000E948010892B21F481E09981911101C061
:1016B00080E00F900F90DF91CF910895CF93DF934B
:1016C00000D0CDB7DEB7BE016F5F7F4F8EE192E0F5
:1016D0000E948010892B21F481E09A81911101C030
:1016E00080E00F900F90DF91CF910895CF93DF931B
:1016F0001F92CDB7DEB71982BE016F5F7F4F8EE1BB
:1017000092E00E944D1189810F90DF91CF91089551
:10171000CF93DF931F92CDB7DEB71982BE016F5F03
:101720007F4F8EE192E00E947D11298130E0A0E19F
:10173000B7E20E946F1A68517A408D4E9F4F21ED9B
:1017400038E140E050E00E94471AC9010F90DF9154
:10175000CF9108950F931F93CF93DF93CDB7DEB74B
:101760002E970FB6F894DEBF0FBECDBF8E01085F77
:101770001F4FB8018EE192E00E941D11892B11F4D8
:1017800087E006C087E0F801982F11929A95E9F753
:10179000F801DE01119601900D928A95E1F72981F9
:1017A0003A814B815C816D817E818F8190E02E96A4
:1017B0000FB6F894DEBF0FBECDBFDF91CF911F9162
:1017C0000F910895CF93DF9300D01F92CDB7DEB76E
:1017D00069834A832B83BE016F5F7F4F8EE192E066
:1017E0000E943E120F900F900F90DF91CF910895BD
:1017F0001F93CF93DF93CDB7DEB765970FB6F894FD
:10180000DEBF0FBECDBF2531A8F4122FCA016983F8
:10181000422F50E0BC01CE0102960E947E1A41E0A8
:10182000410FBE016F5F7F4F8EE192E00E94CA11AF
:1018300081E001C080E065960FB6F894DEBF0FBE70
:10184000CDBFDF91CF911F910895CF93DF93CDB797
:10185000DEB765970FB6F894DEBF0FBECDBF6983C4
:101860002A833B834C835D8345E0BE016F5F7F4FDE
:101870008EE192E00E94CA1181E065960FB6F8945D
:10188000DEBF0FBECDBFDF91CF910895CF93DF9321
:10189000EC01642FFC01319684E1DF011D928A95F1
:1018A000E9F7AE018EE192E00E94B010CE01DF9127
:1018B000CF91089584E1E0E0F2E0DF011D928A9586
:1018C000E9F74FEF51E08EE192E00E94B010EFEFA8
:1018D000F1E022816381862F90E0A0E0B0E0DC019E
:1018E00099278827922B2181822B2481BC01CD014D
:1018F000922B08958EE192E00C94ED10CF93DF933C
:10190000CDB7DEB781E2FE013596DF0101900D9281
:101910008A95E1F78EE192E0DF91CF910C94D1119D
:101920008EE192E00C94E7118EE192E00C945F124C
:10193000CF9353988EE192E00E9445128EE192E09F
:101940000E94550DCFE1C15051F061E070E080E0A0
:1019500090E00E94DD0A4B9BF6CF81E001C080E061
:10196000CF910895CF92DF92EF92FF92CF93DF93C2
:10197000EC016A017B01539860E070E08EE192E037
:101980000E94E30E8AE0C816D104E104F10418F4C1
:10199000C701B60137C0B701A601CE010E94980C5D
:1019A00081113BC081E3C81685E7D806E104F10444
:1019B000E0F08EE1C816D104E104F10430F08EE1CC
:1019C000C81AD108E108F10803C0C12CD12C760156
:1019D000B701A601CE010E94980CC114D104E10404
:1019E000F104C1F0882329F318C08FE1C816D1048F
:1019F000E104F10408F44FC0C701B6016E5171094A
:101A000081099109DF91CF91FF90EF90DF90CF9006
:101A10000C94DD0A882309F43EC0E0907A00EE1CA5
:101A2000EE24EE1C29F080917A008F7780937A0063
:101A3000F0B6FF1CFF24FF1C19F080B78F7780BF22
:101A400040E050E06EE37BE081E00E94191683B72E
:101A5000817F846083BFF8944B9B0DC083B7816006
:101A600083BF85B7806685BF8F7D85BF7894889555
:101A700083B78E7F83BF789481E00E943916EE2071
:101A800029F080917A00806880937A00FF2019F015
:101A900080B7806880BFDF91CF91FF90EF90DF909B
:101AA000CF90089508950895089520914E0122231E
:101AB000E1F3FC0111A20895DC01ED91FC91DB0141
:101AC00014964D915C9115976D917C910280F381F4
:101AD000E02D09941F920F920FB60F9211242F93AD
:101AE0003F934F935F936F937F938F939F93AF93A6
:101AF000BF93CF93DF93EF93FF938091C00082FD5C
:101B00000BC02091C60080911C0290911D02309163
:101B10001B02009721F40EC08091C600BBC0332386
:101B200019F040E2242706C02D3731F481E080937C
:101B30001B02B0C031111AC02E3719F4009749F4B6
:101B400015C02F3721F48530910519F40FC02D37BA
:101B500069F410921A02109219021092180210924F
:101B60001702109216021092150235C010921B0235
:101B70008230910599F154F4009721F1019709F011
:101B800089C02093180282E090E060C08430910503
:101B900009F450C07CF1059709F07CC081E0809386
:101BA0004D0210921D0210921C0210921A02109205
:101BB0001902109218021092170210921602109237
:101BC000150268C02E3709F065C081E090E090935F
:101BD0001D0280931C0210924D025CC010921902EB
:101BE00020931A028091180281508093180283E09A
:101BF00090E02CC08091190290911A02AC01422B06
:101C00009A0130931A022093190280911802815090
:101C100080931802232B19F02EE432E002C020EE4C
:101C200032E03093160220931502882369F084E095
:101C300090E00CC0E0911502F0911602309759F433
:101C400080911802811126C085E090E090931D02DA
:101C500080931C021FC0EF01CB5BDF4F888199810D
:101C6000019665E470E00E94331ADF01A95BBF4F63
:101C70004D915C918417950739F048815981E40FA3
:101C8000F51F208399838883809118028150809367
:101C90001802D6CFFF91EF91DF91CF91BF91AF9115
:101CA0009F918F917F916F915F914F913F912F9174
:101CB0000F900FBE0F901F9018951F920F920FB6A6
:101CC0000F9211242F933F934F935F936F937F93C2
:101CD0008F939F93AF93BF93EF93FF932091DC0279
:101CE0003091DD028091DE029091DF0228173907E2
:101CF00069F4609129038DE00E9408178091C1006A
:101D00008F7B8093C10081E080934E01FF91EF9122
:101D1000BF91AF919F918F917F916F915F914F9103
:101D20003F912F910F900FBE0F901F9018951F920B
:101D30000F920FB60F9211242F933F935F936F93DF
:101D40007F938F939F93AF93BF93EF93FF932091D4
:101D5000DC023091DD028091DE029091DF022817D3
:101D6000390759F48091C1008F7D8093C100809123
:101D7000C10080648093C10016C0E091DE02F09142
:101D8000DF02E956FD4F20818091DE029091DF0253
:101D9000019665E470E00E94331A9093DF0280930D
:101DA000DE022093C600FF91EF91BF91AF919F910A
:101DB0008F917F916F915F913F912F910F900FBE07
:101DC0000F901F901895FC016115710599F487E03B
:101DD00090E0A0E0B0E082A393A3A4A3B5A38DE01C
:101DE00090E0A0E0B0E086A397A3A0A7B1A71092CF
:101DF000290308956130710579F412A213A214A287
:101E000015A216A217A210A611A681E0809329039D
:101E100061E08DE00C94081708958F929F92AF9225
:101E2000BF92CF92DF92EF92FF920F931F9381E0C8
:101E30008F9385E08F9387E08F9383E08F9384E087
:101E40008F9386EC882E912C92ECA92EB12C21EC4C
:101E5000C22ED12C30ECE32EF12C04EC10E025EC5A
:101E600030E047E952E060EE72E08EE192E00E94DD
:101E70003015EEE1F2E083E591E0918380838EE41A
:101E800092E093A782A78DE492E095A784A7109291
:101E90004D0287E090E0A0E0B0E082A393A3A4A36A
:101EA000B5A38DE090E0A0E0B0E086A397A3A0A743
:101EB000B1A70F900F900F900F900F901F910F915F
:101EC000FF90EF90DF90CF90BF90AF909F908F905A
:101ED0000895CF93DF93EC0140E056E960E070E0B5
:101EE0000E942D1361E08DE00E94CC1691E09EA728
:101EF0004091DC025091DD022091DE023091DF0240
:101F00004217530749F490934E01609129038DE0E5
:101F1000DF91CF910C940817DF91CF9108951F9313
:101F2000CF93DF9323E8260F233040F4162FEC01E4
:101F30006DE70E94ED1460E26127CE01DF91CF9141
:101F40001F910C94ED14CF92DF92EF92FF920F93BA
:101F50001F93CF93DF93EC01F62EE72E6A018901E0
:101F60002134310508F04AC010924E0161E08DE045
:101F70000E9408172091DC023091DD028091DE0280
:101F80009091DF022817390749F46AA17BA18CA13F
:101F90009DA16115710581059105A9F56EE7CE0139
:101FA0000E94ED1462E0600FCE010E948F0F6E2D33
:101FB000CE010E948F0F6F2DCE010E948F0FF12C4A
:101FC0008F2D90E08017910748F4F601E80FF91F74
:101FD0006081CE010E948F0FF394F2CF6FE7CE01A4
:101FE0000E94ED146EA17FA188A599A561157105C8
:101FF0008105910531F00E94DD0A03C08FEF9FEF4C
:1020000005C0C80103C00E94DD0AC8CFDF91CF918F
:102010001F910F91FF90EF90DF90CF9008954F9216
:102020005F926F927F92AF92BF92CF92DF92EF92C8
:10203000FF920F931F93CF93DF93EC01F8948AA53F
:102040009BA5FC01E95BFF4F118210823297118240
:102050001082ECA5FDA510827894CE010E94A30FFA
:102060000E94AC0A688779878A879B87ECA5FDA5C3
:102070008081811111C00E94AC0A488459846A840D
:102080007B84DC01CB0184199509A609B7098A155F
:102090009B05AC05BD0550F3ECA5FDA5808188230B
:1020A000F1F06AA57BA5FB01EB5BFF4F808191817D
:1020B000D7014D915C918417950710F440815181AF
:1020C000C8010E947E1AEAA5FBA5EB5BFF4F808149
:1020D0009181F7019183808380E090E002C08FEFCF
:1020E0009FEFDF91CF911F910F91FF90EF90DF90C5
:1020F000CF90BF90AF907F906F905F904F9008957A
:10210000AF92BF92CF92DF92EF92FF920F931F9305
:10211000CF93DF9300D0CDB7DEB722E030E03A8333
:10212000298324E6A22EB12CC12CD12C9E012F5F35
:102130003F4F79018B0120E030E040E050E060E368
:1021400075E00E940F100F900F90DF91CF911F91BB
:102150000F91FF90EF90DF90CF90BF90AF900895D8
:102160008F929F92AF92BF92CF92DF92EF92FF92A7
:102170000F931F93CF93DF9300D01F92CDB7DEB79D
:102180004A0125E130E03A8329836B8324E6A22EBD
:10219000B12CC12CD12C9E012F5F3F4F79018A01B8
:1021A00021E030E0AE014D5F5F4F65E175E00E94D8
:1021B0000F1029812150F40120830F900F900F9070
:1021C000DF91CF911F910F91FF90EF90DF90CF9013
:1021D000BF90AF909F908F900895AF92BF92CF9293
:1021E000DF92EF92FF920F931F93CF93DF9300D074
:1021F000CDB7DEB721E230E03A83298324E6A22E70
:10220000B12CC12CD12C9E012F5F3F4F79018B0146
:1022100020E030E040E050E060E175E00E940F1007
:102220000F900F90DF91CF911F910F91FF90EF9042
:10223000DF90CF90BF90AF900895AF92BF92CF92B2
:10224000DF92EF92FF920F931F93CF93DF9300D013
:10225000CDB7DEB727E030E03A83298324E6A22E0B
:10226000B12CC12CD12C9E012F5F3F4F79018B01E6
:1022700020E030E040E050E060E170E20E940F10AA
:102280000F900F90DF91CF911F910F91FF90EF90E2
:10229000DF90CF90BF90AF900895AF92BF92CF9252
:1022A000DF92EF92FF920F931F93CF93DF9300D0B3
:1022B000CDB7DEB721E030E03A83298324E6A22EB1
:1022C000B12CC12CD12C9E012F5F3F4F79018B0186
:1022D00020E030E040E050E061E170E20E940F1049
:1022E0000F900F90DF91CF911F910F91FF90EF9082
:1022F000DF90CF90BF90AF900895AF92BF92CF92F2
:10230000DF92EF92FF920F931F93CF93DF9300D052
:10231000CDB7DEB721E030E03A83298324E6A22E50
:10232000B12CC12CD12C9E012F5F3F4F79018B0125
:1023300020E030E040E050E065E170E20E940F10E4
:102340000F900F90DF91CF911F910F91FF90EF9021
:10235000DF90CF90BF90AF900895CF93DF9300D0E0
:1023600000D01F92CDB7DEB729833A834B835C83BD
:102370006D8325E030E0AE014F5F5F4F62E175E0B5
:102380000E94A30F0F900F900F900F900F90DF916E
:10239000CF910895242F30E0AB0164E175E00C94F7
:1023A000A30FCF93DF93CDB7DEB72EA1211103C0CA
:1023B00060E475E002C061E175E021E230E0AE0169
:1023C0004B5F5F4F0E94A30FDF91CF9108957F92E3
:1023D0008F929F92AF92BF92CF92DF92EF92FF9235
:1023E0000F931F93CF93DF93CDB7DEB7A3970FB6AD
:1023F000F894DEBF0FBECDBF4C01762E81E290E097
:102400009BA38AA384E6A82EB12CC12CD12CCE018B
:1024100082967C018E010F5F1F4F20E030E040E08C
:1024200050E060E175E0C4010E940F10892B91F427
:102430007E82F40186A5811103C060E475E002C0CC
:1024400061E175E02AA13BA1AE014F5F5F4FC4017E
:102450000E94A30FA3960FB6F894DEBF0FBECDBFA8
:10246000DF91CF911F910F91FF90EF90DF90CF9070
:10247000BF90AF909F908F907F900895AB0123E025
:1024800030E061E070E20C94A30FCF93DF9300D0B3
:1024900000D0CDB7DEB749835A836B837C8324E0B9
:1024A00030E0AE014F5F5F4F60E070E30E94A30F2A
:1024B0000F900F900F900F90DF91CF910895CF93D1
:1024C000DF931F92CDB7DEB7698321E030E0AE0124
:1024D0004F5F5F4F60E170E30E94A30F0F90DF91A9
:1024E000CF910895CF93DF931F92CDB7DEB7698365
:1024F00021E030E0AE014F5F5F4F60E070E00E948E
:10250000A30F81E090E00F90DF91CF910895CF92DB
:10251000DF92EF92FF920F931F93CF93DF936C01A3
:102520007B01EA0161157105A1F1209791F1413418
:10253000510508F1E0E0F0E00FE310E098012E1BF8
:102540003F0BA7014E0F5F1F60E070E0C6010E94C5
:10255000A30F0C171D0701F1C801805C9F4FC8171E
:10256000D90708F4CE01F801C817D90710F08C017B
:10257000E5CFCE0112C09A01AB0160E070E0DF91BF
:10258000CF911F910F91FF90EF90DF90CF900C941F
:10259000A30F80E090E001C0C801DF91CF911F91AF
:1025A0000F91FF90EF90DF90CF900895CF92DF9240
:1025B000EF92FF920F931F93CF93DF93CDB7DEB7C8
:1025C000C054D1090FB6F894DEBF0FBECDBF611560
:1025D000710589F16C017B0100E010E0F7012491A5
:1025E0002223F1F0C8010196A1E0B0E0AC0FBD1FBD
:1025F000A00FB11F2C938034910529F02FEFE21A20
:10260000F20A8C01EBCF20E430E0AE014F5F5F4F68
:1026100060E070E0C6010E94A30F80E090E0EECF82
:102620009801AE014F5F5F4F60E070E0C6010E940D
:10263000A30FC80102C080E090E0C05CDF4F0FB67E
:10264000F894DEBF0FBECDBFDF91CF911F910F91E8
:10265000FF90EF90DF90CF900895CF92DF92EF92AE
:10266000FF920F931F93CF93DF93EC016A017B01DD
:10267000EC89FD8981E090E008A002C0880F991FD5
:102680000A94E2F7808360E874E88EE190E0A701A5
:1026900096010E94471A89019A01015011092109E6
:1026A0003109369527951795079598010115104121
:1026B00008F042C0E889F9893083EA89FB892083E0
:1026C00019A2EE89FF89408181E090E09C010C8C89
:1026D00002C0220F331F0A94E2F7242B2083EE89D5
:1026E000FF8940819C010D8C02C0220F331F0A9488
:1026F000E2F7242B2083EE89FF8940819C010E8C18
:1027000002C0220F331F0A94E2F7242B2083EE89A4
:10271000FF8920810F8C02C0880F991F0A94E2F76D
:10272000809582238083DF91CF911F910F91FF903D
:10273000EF90DF90CF900895EC89FD89108260E4DE
:1027400072E48FE090E0A70196010E94471ADA0137
:10275000C9010197A109B109B695A79597958795E4
:102760009C01A8CFCF92DF92EF92FF921F93CF935D
:10277000DF93EC016A017B01122FEC89FD8981E076
:1027800090E008A002C0880F991F0A94E2F78083A6
:1027900060E874E88EE190E0A70196010E94471A74
:1027A000DA01C9010197A109B109B695A7959795D5
:1027B0008795AC01411580E1580708F043C0E889CE
:1027C000F9895083EA89FB894083E88DF98D10836C
:1027D000EE89FF89408181E090E09C010C8C02C071
:1027E000220F331F0A94E2F7242B2083EE89FF89FE
:1027F00040819C010D8C02C0220F331F0A94E2F726
:10280000242B2083EE89FF8940819C010E8C02C01D
:10281000220F331F0A94E2F7242B2083EE89FF89CD
:1028200020810F8C02C0880F991F0A94E2F78095CF
:1028300082238083DF91CF911F91FF90EF90DF90F3
:10284000CF900895EC89FD89108260E472E48FE0F6
:1028500090E0A70196010E94471ABA01A9014150D0
:102860005109610971097695679557954795A7CFE5
:10287000CF93DF93FC0186859785EC01CB5BDF4F1F
:10288000DC01A95BBF4F288139818D919C91119703
:1028900028173907C1F7A689B7893C9181E090E0F4
:1028A000AC01048C02C0440F551F0A94E2F7242F98
:1028B000209523232C93A689B7893C91AC01058CE4
:1028C00002C0440F551F0A94E2F7242F20952323BA
:1028D0002C93A689B7893C91AC01068C02C0440FA9
:1028E000551F0A94E2F7242F209523232C93A689C1
:1028F000B7892C91078C02C0880F991F0A94E2F7C0
:10290000809582238C9384859585FC01E95BFF4F3C
:1029100020813181329731832083DF91CF910895D7
:10292000FC0124853585F901EB5BFF4F80819181A6
:102930003296208131818B5B9F4F821B930B65E424
:1029400070E00E94331A0895DC011C96ED91FC9111
:102950001D97DF01AB5BBF4F2D913C9111971296F4
:102960008D919C9111972817390739F08D919C9181
:10297000E80FF91F808190E008958FEF9FEF089591
:10298000FC01A485B585FD01EB5BFF4F2081318102
:102990003296808191812817390789F08081918151
:1029A000A80FB91F2C9180819181019665E470E098
:1029B0000E94331A91838083822F90E008958FEFD5
:1029C0009FEF0895FC0181A1882329F0A489B5898E
:1029D0008C9186FFFBCF11A20895CF93DF93FC016A
:1029E000462FC685D7859E012B5B3F4FD9018D9120
:1029F0009C91019665E470E00E94331ADE01A95BA8
:102A0000BF4F6D917C91119786179707D1F3D9012C
:102A10002D913C91DE01A20FB31F4C93A685B78583
:102A2000AB5BBF4F11969C938E93A689B7892C916F
:102A300081E090E0078C02C0880F991F0A94E2F7AA
:102A4000822B8C9381E081A30488F589E02D80811D
:102A50008064808381E090E0DF91CF9108950895B4
:102A60008F929F92AF92BF92CF92DF92EF92FF929E
:102A70000F931F93CF93DF93CDB7DEB7FC01138283
:102A8000128288EE93E0A0E0B0E084839583A68371
:102A9000B7838DE691E0918380837587648757873C
:102AA0004687318B208B138B028BF58AE48AD78A79
:102AB000C68AB18EA08E938E828E8F85848F8889F0
:102AC000858F8989868F8A89878F8B8980A3DF91FB
:102AD000CF911F910F91FF90EF90DF90CF90BF901B
:102AE000AF909F908F900895CF92DF92EF92FF92D8
:102AF0000F931F93CF93DF936C01EB017B01E40EE7
:102B0000F51E00E010E0CE15DF0561F06991D601F9
:102B1000ED91FC910190F081E02DC6010995080F1F
:102B2000191FF1CFC801DF91CF911F910F91FF9035
:102B3000EF90DF90CF900895EF92FF920F931F9345
:102B4000CF93DF937C01FB0100E010E06491EF0183
:102B50002196662361F0D701ED91FC910190F081FF
:102B6000E02DC7010995080F191FFE01EFCFC8011D
:102B7000DF91CF911F910F91FF90EF900895AF9249
:102B8000BF92CF92DF92EF92FF920F931F93CF935A
:102B9000DF936C017B01C0E0D0E000E010E0D701E2
:102BA00014968D919C911597C817D90788F4D60172
:102BB000ED91FC91A080B180BE01C7010E94F41587
:102BC000682FC601F5010995080F191F2196E7CF57
:102BD000C801DF91CF911F910F91FF90EF90DF908F
:102BE000CF90BF90AF900895FC012481358162178A
:102BF000730748F480819181009729F0FC01E60F6A
:102C0000F71F8081089580E008950E94030B8CB522
:102C10008F7B8CBD8EE192E00E94690F0E94310390
:102C2000CFE2D5E10E9493042097E1F30E942F1593
:102C3000F9CF8230E8F4E82FF0E0EE0FFF1FE65DF9
:102C4000FC4F71836083813041F0809169008C7FFB
:102C5000482B40936900E89A089580916900440FD9
:102C6000551F440F551F837F482B40936900E99AF5
:102C70000895823068F4813011F0E89801C0E99835
:102C8000E82FF0E0EE0FFF1FE65DFC4F118210828F
:102C900008951F920F920FB60F9211242F933F9316
:102CA0004F935F936F937F938F939F93AF93BF9354
:102CB000EF93FF9380912A0390912B03892B29F0A6
:102CC000E0912A03F0912B030995FF91EF91BF91B9
:102CD000AF919F918F917F916F915F914F913F91B4
:102CE0002F910F900FBE0F901F9018951F920F926B
:102CF0000FB60F9211242F933F934F935F936F93CF
:102D00007F938F939F93AF93BF93EF93FF938091A4
:102D10002C0390912D03892B29F0E0912C03F09145
:102D20002D030995FF91EF91BF91AF919F918F91E5
:102D30007F916F915F914F913F912F910F900FBEB7
:102D40000F901F901895833081F028F4813099F00E
:102D50008230A1F008958630A9F08730B9F0843030
:102D6000D1F4809180008F7D03C0809180008F77A7
:102D700080938000089584B58F7702C084B58F7DDD
:102D800084BD08958091B0008F7703C08091B0001A
:102D90008F7D8093B0000895CF93DF9390E0FC0186
:102DA000E854FF4F2491FC01E453FF4F84918823A2
:102DB00061F190E0880F991FFC01E651FF4FC5912A
:102DC000D491FC01E052FF4FA591B491611109C06B
:102DD0009FB7F8948881209582238883EC912E23D5
:102DE0000BC0623061F49FB7F8943881822F8095D0
:102DF00083238883EC912E2B2C939FBF06C08FB723
:102E0000F894E8812E2B28838FBFDF91CF9108950E
:102E10001F93CF93DF93282F30E0F901EC55FF4F3C
:102E20008491F901E854FF4FD491F901E453FF4F25
:102E3000C491CC23C9F0162F81110E94A316EC2F48
:102E4000F0E0EE0FFF1FE052FF4FA591B4918FB756
:102E5000F894111105C09C91ED2FE095E92302C073
:102E6000EC91ED2BEC938FBFDF91CF911F910895E3
:102E70005058BB27AA270E9450170C9420190E9473
:102E8000121938F00E94191920F039F49F3F19F4F3
:102E900026F40C94E8180EF4E095E7FB0C94E21885
:102EA000E92F0E94311958F3BA1762077307840794
:102EB000950720F079F4A6F50C9453190EF4E095DB
:102EC0000B2EBA2FA02D0B01B90190010C01CA01E4
:102ED000A0011124FF27591B99F0593F50F4503E8F
:102EE00068F11A16F040A22F232F342F4427585F81
:102EF000F3CF469537952795A795F0405395C9F799
:102F00007EF41F16BA0B620B730B840BBAF0915050
:102F1000A1F0FF0FBB1F661F771F881FC2F70EC0EF
:102F2000BA0F621F731F841F48F4879577956795C2
:102F3000B795F7959E3F08F0B0CF9395880F08F0AE
:102F40009927EE0F979587950895DF93DD27B92F81
:102F5000BF7740E85FE31616170648075B0718F4CB
:102F6000D92F0E945F199F938F937F936F930E9435
:102F70001A1AE6E7F0E00E94EB180E9420192F9140
:102F80003F914F915F910E947A19DD2351F0905843
:102F9000A2EA2AED3FE049EC5FE3D0785D270E948A
:102FA0005017DF910C9420190E94BE1808F481E09C
:102FB00008950E94ED170C9420190E94191958F0D9
:102FC0000E94121940F029F45F3F29F00C94E21896
:102FD00051110C9454190C94E8180E94311968F39B
:102FE0009923B1F3552391F3951B550BBB27AA27C2
:102FF00062177307840738F09F5F5F4F220F331FFC
:10300000441FAA1FA9F335D00E2E3AF0E0E832D0C3
:1030100091505040E695001CCAF72BD0FE2F29D0C6
:10302000660F771F881FBB1F261737074807AB0798
:10303000B0E809F0BB0B802DBF01FF2793585F4F0D
:103040003AF09E3F510578F00C94E2180C94541914
:103050005F3FE4F3983ED4F3869577956795B795EF
:10306000F7959F5FC9F7880F911D9695879597F9FA
:103070000895E1E0660F771F881FBB1F6217730773
:103080008407BA0720F0621B730B840BBA0BEE1F88
:1030900088F7E09508950E9452186894B1110C9435
:1030A000541908950E94391988F09F5798F0B92F44
:1030B0009927B751B0F0E1F0660F771F881F991F6D
:1030C0001AF0BA95C9F714C0B13091F00E945319A3
:1030D000B1E008950C945319672F782F8827B85FB3
:1030E00039F0B93FCCF3869577956795B395D9F7C5
:1030F0003EF490958095709561957F4F8F4F9F4FCF
:103100000895E89409C097FB3EF4909580957095DA
:1031100061957F4F8F4F9F4F9923A9F0F92F96E923
:10312000BB279395F695879577956795B795F11198
:10313000F8CFFAF4BB0F11F460FF1BC06F5F7F4F35
:103140008F4F9F4F16C0882311F096E911C0772347
:1031500021F09EE8872F762F05C0662371F096E850
:10316000862F70E060E02AF09A95660F771F881F1F
:10317000DAF7880F9695879597F90895990F0008C3
:10318000550FAA0BE0E8FEEF16161706E807F90739
:10319000C0F012161306E407F50798F0621B730BD4
:1031A000840B950B39F40A2661F0232B242B252B55
:1031B00021F408950A2609F4A140A6958FEF811DF8
:1031C000811D089597F99F6780E870E060E0089599
:1031D0009FEF80EC0895DF93CF931F930F93FF929F
:1031E000EF92DF927B018C01689406C0DA2EEF012A
:1031F0000E947A19FE01E894A59125913591459197
:103200005591A6F3EF010E945017FE019701A80106
:10321000DA9469F7DF90EF90FF900F911F91CF91B3
:10322000DF91089500240A94161617061806090659
:10323000089500240A94121613061406050608952C
:10324000092E0394000C11F4882352F0BB0F40F4B4
:10325000BF2B11F460FF04C06F5F7F4F8F4F9F4FF4
:10326000089557FD9058440F551F59F05F3F71F076
:103270004795880F97FB991F61F09F3F79F08795DD
:103280000895121613061406551FF2CF4695F1DF66
:1032900008C0161617061806991FF1CF86957105F6
:1032A000610508940895E894BB2766277727CB012A
:1032B00097F908950E94BE1808F48FEF08959B01B6
:1032C000AC0160E070E080E89FE30C94D9170E94A5
:1032D0007A190C9420190E94121938F00E941919B9
:1032E00020F0952311F00C94E2180C94E8181124A6
:1032F0000C9454190E94311970F3959FC1F3950FE6
:1033000050E0551F629FF001729FBB27F00DB11D69
:10331000639FAA27F00DB11DAA1F649F6627B00DF9
:10332000A11D661F829F2227B00DA11D621F739FE2
:10333000B00DA11D621F839FA00D611D221F749FF0
:103340003327A00D611D231F849F600D211D822F37
:10335000762F6A2F11249F5750409AF0F1F088235E
:103360004AF0EE0FFF1FBB1F661F771F881F91508B
:103370005040A9F79E3F510580F00C94E2180C9440
:1033800054195F3FE4F3983ED4F38695779567959B
:10339000B795F795E7959F5FC1F7FE2B880F911DB5
:1033A0009695879597F9089519F416F40C94E818F2
:1033B0000C941E1A0E943919B8F39923C9F3B6F375
:1033C0009F57550B87FF0E942C1A0024A0E640EA65
:1033D000900180585695979528F4805C660F771F6A
:1033E000881F20F026173707480730F4621B730B3D
:1033F000840B202931294A2BA69517940794202560
:1034000031254A2758F7660F771F881F20F02617A7
:103410003707480730F4620B730B840B200D311D06
:10342000411DA09581F7B901842F9158880F969579
:10343000879508959B01AC010C9467199F3F31F06B
:10344000915020F4879577956795B795880F911DD2
:103450009695879597F9089591505040660F771F7C
:10346000881FD2F70895AA1BBB1B51E107C0AA1FF2
:10347000BB1FA617B70710F0A61BB70B881F991F15
:103480005A95A9F780959095BC01CD010895A1E2C8
:103490001A2EAA1BBB1BFD010DC0AA1FBB1FEE1FCE
:1034A000FF1FA217B307E407F50720F0A21BB30B19
:1034B000E40BF50B661F771F881F991F1A9469F795
:1034C00060957095809590959B01AC01BD01CF01F1
:1034D0000895EE0FFF1F0590F491E02D0994A29F2F
:1034E000B001B39FC001A39F700D811D1124911DD8
:1034F000B29F700D811D1124911D0895FB01DC0107
:1035000002C001900D9241505040D8F70895F894B0
:02351000FFCFEB
:1035120003001E000000803F5A48C0BAFEF13E3E42
:1035220061CF0CC1A46895440000803FD9CE873F8B
:103532007B148E3F8941903F00005C420000A04115
:103542000000A0400000A0400000964200005C4243
:103552000000A0410000A0411E00000090420100B6
:1035620000000072128712D6125C0D9014C014A4CF
:1035720014550D520D530D540D00000000ED14743E
:10358200159C15BF159014C014A414E2142D13B287
:0435920013381400D6
:00000001FF
