:100000000C9482000C944E180C947B180C94AA004B
:100010000C94AA000C94AA000C94AA000C94AA00B8
:100020000C94AA000C94AA000C94AA000C94AA00A8
:100030000C94AA000C94AA000C94AA000C94AA0098
:100040000C94680A0C94AA000C94280E0C94491085
:100050000C940F100C94AA000C94AA000C94AA0003
:100060000C94AA000C94AA0035053905CD05D805D5
:10007000F10512062F068A0E970EAE0ED60E2A0F27
:10008000760F990F084AD73B3BCE016E84BCBFFD6B
:10009000C12F3D6C74319ABD56833DDA3D00C77F58
:1000A00011BED9E4BB4C3E916BAAAABE00000080F1
:1000B0003F000103040600000000000000070002EA
:1000C000000000000000400204081020018001022E
:1000D0000408102001020408102004020202020297
:1000E00004040204040404040303030303030000E0
:1000F0000000250028002B0000000000240027003D
:100100002A00BF1011241FBECFEFD8E0DEBFCDBF45
:1001100011E0A0E0B1E0ECE1F9E302C005900D923E
:10012000A438B107D9F724E0A4E8B1E001C01D92DA
:10013000A236B207E1F710E0C2E8D0E004C0219790
:10014000FE010E946E1CC138D107C9F70E940E182B
:100150000C948C1C0C9400002F923F924F925F9253
:100160006F927F928F929F92AF92BF92CF92DF92C7
:10017000EF92FF920F931F93CF93DF9300D000D0A5
:10018000CDB7DEB76B017C015A0119017724739456
:10019000402E512C81E0481A5108872C912C840163
:1001A000000F111F000F111F9501200F311FD901E2
:1001B0008D919D910D90BC91A02D89839A83AB83E5
:1001C000BC839C01AD01C701B6010E945F1B1816DC
:1001D0000CF45AC0B1E08B1AB0EC9B0A880C991C45
:1001E000880C991CF501E80DF91D40805180628052
:1001F0007380F101E80DF91D80809180A280B380A9
:10020000A3019201C701B6010E943D196B017C0157
:10021000F101E00FF11FA5019401608171818281DC
:1002200093810E943D199B01AC01C701B6010E9458
:100230006C1B6B017C01A301920169817A818B8126
:100240009C810E943D199B01AC01C701B6010E942F
:10025000DE19A50194010E943E190F900F900F9096
:100260000F90DF91CF911F910F91FF90EF90DF9052
:10027000CF90BF90AF909F908F907F906F905F9046
:100280004F903F902F900895841495040CF0A2CFC6
:10029000739483CFCF92DF92EF92FF920F931F93CD
:1002A000CF93DF93EC0100E010E0C12CD12C76015C
:1002B0000C171D0784F484E192E00E947C0B082E49
:1002C000000C990BAA0BBB0BC80ED91EEA1EFB1E15
:1002D0000F5F1F4FEDCFC701B6010E94881A6B0157
:1002E0007C01BE01DD0F880B990B0E94881A9B01CF
:1002F000AC01C701B6010E94DE1926E636E646EEDD
:100300005FE30E946C1B20E030E040E052E40E947A
:100310003E19DF91CF911F910F91FF90EF90DF90E9
:10032000CF900895CF92DF92EF92FF920F931F9399
:10033000CF93DF93EC0100E010E0C12CD12C7601CB
:100340000C171D0784F484E192E00E947C0B082EB8
:10035000000C990BAA0BBB0BC80ED91EEA1EFB1E84
:100360000F5F1F4FEDCFC701B6010E94881A6B01C6
:100370007C01BE01DD0F880B990B0E94881A9B013E
:10038000AC01C701B6010E94DE1926E636E646EE4C
:100390005FE30E946C1B20E030E040E052E40E94EA
:1003A0003E19DF91CF911F910F91FF90EF90DF9059
:1003B000CF9008952F923F924F925F926F927F92CB
:1003C0008F929F92AF92BF92CF92DF92EF92FF9265
:1003D0000F931F93CF93DF93CDB7DEB727970FB659
:1003E000F894DEBF0FBECDBF1C0100E010E0C12CB1
:1003F000D12C76012601370146015701021513055C
:10040000ECF584E192E00E94B00B29833A834B83A0
:100410005C836D837E8369817A81072E000C880B53
:10042000990B0E94881A9B01AC01C501B4010E947E
:100430003E194B015C016B817C81072E000C880BFF
:10044000990B0E94881A9B01AC01C301B2010E9462
:100450003E192B013C016D817E81072E000C880B1B
:10046000990B0E94881A9B01AC01C701B6010E943A
:100470003E196B017C010F5F1F4FC0CFA501940196
:10048000C501B4010E946C1B4B015C01A7019601E0
:10049000C701B6010E946C1B9B01AC01C501B401F0
:1004A0000E943E190E94DF1B9B01AC01C301B201F7
:1004B0000E94DE190E94AA1923E333E345E652E4C1
:1004C0000E946C1B27960FB6F894DEBF0FBECDBFFF
:1004D000DF91CF911F910F91FF90EF90DF90CF9020
:1004E000BF90AF909F908F907F906F905F904F9054
:1004F0003F902F9008950F932FE632E143E85AE39F
:100500000E946C1B04E028E131E042E951E00E94C6
:10051000AC0020E030E04AE754E40E946C1B0F91ED
:100520000895CF92DF92EF92FF920F931F93CF9394
:10053000DF93CDB7DEB760970FB6F894DEBF0FBE7E
:10054000CDBFC0900401D0900501E0900601F0906D
:100550000701C986DA86EB86FC8600E010E020EC15
:100560003FE30D871E872F87388BC12CD12C40E8A5
:10057000E42E4FE3F42EC982DA82EB82FC820D83F3
:100580001E832F8338872FE632E143E85AE30E9427
:100590006C1B02E09E012F5F3F4FAE01475F5F4F34
:1005A0000E94AC0020E030E04AE754E40E946C1B5B
:1005B00060960FB6F894DEBF0FBECDBFDF91CF912E
:1005C0001F910F91FF90EF90DF90CF9008958F9241
:1005D0009F92AF92BF92CF92DF92EF92FF92CF9312
:1005E000DF936B017C01C8E0D1E0288139814A8129
:1005F0005B810E946C1BA70196010E946C1BA701E6
:1006000096010E946C1B4B015C012C813D814E8147
:100610005F81C701B6010E946C1BA70196010E9471
:100620006C1B9B01AC01C501B4010E943E194B013A
:100630005C01288539854A855B85C701B6010E9422
:100640006C1B9B01AC01C501B4010E943E192C85B5
:100650003D854E855F850E943E19DF91CF91FF90C9
:10066000EF90DF90CF90BF90AF909F908F900895C4
:1006700061E084E192E00E94F60C84E192E00E9445
:10068000290C65ED71E084E192E00E94E00C80E0CD
:1006900090E0FC01E655FE4FDC01AB52BE4F1C96CC
:1006A0002C91208301968431910599F79093A701AD
:1006B0008093A60184E58093AA0189E68093AB012B
:1006C0008CE68093AC0184E78093AD016091AE012C
:1006D0007091AF0180E090E00E94861A2FE632E12F
:1006E00043E85AE30E946C1B60939201709393015C
:1006F00080939401909395016091B0017091B10144
:1007000080E090E00E94861A2FE632E143E85AE347
:100710000E946C1B609396017093970180939801DF
:10072000909399016091B2017091B30180E090E0E3
:100730000E94861A2FE632E143E85AE30E946C1BBE
:1007400060939A0170939B0180939C0190939D010B
:100750006091B4017091B50180E090E00E94861A2A
:100760002FE632E143E85AE30E946C1B60939E013E
:1007700070939F018093A0019093A1016091B601B5
:100780007091B70180E090E00E94861A2DEC3CEC5D
:100790004CEC5DE30E946C1B20E030E040E251E451
:1007A0000E943D196093A2017093A3018093A4015C
:1007B0009093A5018091DB019091DC019093A901B8
:1007C0008093A801089584EF91E09093D6018093DF
:1007D000D50184E190E09093D8018093D70183E024
:1007E0008093D90181E08093DA018091A8019091F2
:1007F000A9019093DC018093DB011092DE0110923D
:10080000DD011092E0011092DF0180E090E0FC0138
:10081000EB52FE4FDC01A655BE4F2C91248701966A
:1008200084319105A1F79093A7018093A60184E1FB
:100830008093F50108950F931F93CF93DF938C015D
:10084000EB010E94E303E5EDF1E011870087D38718
:10085000C2871F928DB79EB781970FB6F8949EBF3F
:100860000FBE8DBFADB7BEB7119681E201900D925C
:100870008A95E1F784E192E00E94E40C8DB79EB77F
:1008800082960FB6F8949EBF0FBE8DBFDF91CF91B9
:100890001F910F910895CF93DF9384E192E00E941E
:1008A0008E0BC3E0D0E089319140B8F068EC70E085
:1008B00080E090E00E94E30A20E04FEF60E084E1F6
:1008C00092E00E94DB0B20E040E060E084E192E0F7
:1008D0000E94DB0B219751F716C068EC70E080E0B6
:1008E00090E00E94E30A20E040E06FEF84E192E0B4
:1008F0000E94DB0B20E040E060E084E192E00E9497
:10090000DB0B219751F7DF91CF9108951092D4011D
:100910001092D30120E030E0A90164E084E192E08C
:100920000E948B0C20E040E060E084E192E00C94B7
:10093000DB0B2F923F924F925F926F927F928F923A
:100940009F92AF92BF92CF92DF92EF92FF920F935E
:100950001F93CF93DF93CDB7DEB7A3970FB6F8946D
:10096000DEBF0FBECDBF84E192E00E944C0B20E0C1
:1009700040E060E0882309F4A3C184E192E00E9492
:10098000DB0B88E090E00E944A010E94571A70E059
:1009900080E090E00E94861A2091A2013091A3018C
:1009A0004091A4015091A5010E943E190E94571A3E
:1009B0009B01AC0162E084E192E00E948B0C80E13B
:1009C00090E00E94DA010E94E7020E947B020E94EE
:1009D000910220E030E040E05FE30E943E190E9477
:1009E000571A9B01AC0163E084E192E00E948B0CFA
:1009F00020E04FEF60E084E192E00E94DB0B20E01A
:100A000040E060E084E192E00E94DB0BC090D30103
:100A1000D090D4010D2C000CEE08FF0864E084E1B6
:100A200092E00E94C00CC616D706E806F90681F0CF
:100A300064E084E192E00E94C00C7093D401609362
:100A4000D3012FEF40E060E084E192E00E94DB0BF5
:100A5000E091D301F091D4013197E730F10508F02E
:100A60002AC1EC5CFF4F0C946E1C2AE04EEA51E068
:100A70001AC145E064E172E0CE0109960E94AC0C17
:100A800085E1FE013996AEEBB1E001900D928A95B9
:100A9000E1F780E090E0FC01E655FE4FDC01A25456
:100AA000BE4F11962C91248301968031910599F7C0
:100AB0006091AE017091AF0180E090E00E94861AD3
:100AC0002FE632E143E85AE30E946C1B60939201E7
:100AD0007093930180939401909395016091B0017C
:100AE0007091B10180E090E00E94861A2FE632E119
:100AF00043E85AE30E946C1B609396017093970140
:100B000080939801909399016091B2017091B30123
:100B100080E090E00E94861A2FE632E143E85AE333
:100B20000E946C1B60939A0170939B0180939C01BF
:100B300090939D016091B4017091B50180E090E0C7
:100B40000E94861A2FE632E143E85AE30E946C1BAA
:100B500060939E0170939F018093A0019093A101E7
:100B60006091B6017091B70180E090E00E94861A12
:100B70002DEC3CEC4CEC5DE30E946C1B20E030E083
:100B800040E251E40E943D196093A2017093A301D9
:100B90008093A4019093A5018BC08091A9018983C2
:100BA0008091A8018A8322E0AE014F5F5F4F7BC036
:100BB00045E064E172E0CE0109960E94AC0C85E14B
:100BC000FE013996AEEBB1E001900D928A95E1F706
:100BD0008091BF019091C0019093A9018093A801D9
:100BE00067C00E94E30381E08F932DB73EB7215287
:100BF00031090FB6F8943EBF0FBE2DBFADB7BEB7DB
:100C0000119681E2E5EDF1E001900D928A95E1F710
:100C100084E192E00E94E40C0FB6F894DEBF0FBEB0
:100C2000CDBF46C080E190E00E94DA0169837A83FB
:100C30008B839C8380E090E0E5E0F0E0EC0FFD1F0B
:100C4000E80FF91FA1E0B0E0AC0FBD1FA80FB91F5E
:100C50002C91208301968430910571F71CC080E1AE
:100C600090E00E94920169837A838B839C8380E069
:100C700090E0E5E0F0E0EC0FFD1FE80FF91FA1E0C8
:100C8000B0E0AC0FBD1FA80FB91F2C9120830196B7
:100C90008430910571F79093A7018093A60124E019
:100CA000AE014B5F5F4F65E084E192E00E945E0C15
:100CB0000E948604F4C344EF51E060E070E0EBC3AF
:100CC00084E192E00E94DB0B88E090E00E944A0100
:100CD0002B013C0180E190E00E94DA01162F072FE2
:100CE000382E292E262F372F482F592F60918A0111
:100CF00070918B0180918C0190918D010E943D1922
:100D00006B017C0120E030E0A9010E945F1B1816F6
:100D10005CF420E030E040E85EE3C701B6010E94E9
:100D2000D91987FF77C00BC020E030E040E85EEBC8
:100D3000C701B6010E945F1B18160CF06BC0812F13
:100D4000902FA32DB22D80938A0190938B01A093B5
:100D50008C01B0938D0180918901811108C040E21E
:100D60005EE460E070E084E192E00E94140D20E017
:100D700030E0A901612F702F832D922D0E945F1BFF
:100D80001816CCF420E030E046E952E4612F702FD1
:100D9000832D922D0E945F1B1816CCF020E030E0CE
:100DA00046E952E4612F702F832D922D0E94D919AC
:100DB00087FF55C047C020E030E046E952EC612F84
:100DC000702F832D922D0E94D91987FF23C084E1B3
:100DD00092E00E94640B8823C1F060E084E192E01D
:100DE0000E94450B1092890183E090E090930101ED
:100DF0008093000110928E0110928F011092900149
:100E00001092910182E08093880140E355E760E011
:100E100070E041C320E030E0A901612F702F832DE5
:100E2000922D0E945F1B18160CF4B8CF20E030E022
:100E300046E952EC612F702F832D922D0E945F1B8B
:100E400018166CF484E192E00E94640B811107C0D3
:100E50000E944B0461E084E192E00E94450B812FE7
:100E6000902FA32DB22D80938A0190938B01A09394
:100E70008C01B0938D01612F702F832D922D0E94D4
:100E8000E7024B015C018091A2019091A301A09126
:100E9000A401B091A5018E8F9F8FA8A3B9A320E0D4
:100EA00030E040E251ECBC01CD010E94D919811122
:100EB00007C282E08093880180918901813051F1DD
:100EC00020F0823009F47AC1B9C205E010E068EC84
:100ED00070E080E090E00E94E30A20E04FEF6FEFC7
:100EE00084E192E00E94DB0B20E040E060E084E1DE
:100EF00092E00E94DB0B0150110949F783E090E07A
:100F00009093010180930001809189018F5F80930C
:100F1000890194C220E030E0A901C701B6010E9416
:100F20005F1B18165CF420E030E040E05FE3C7018F
:100F3000B6010E94D91987FFDFC00BC020E030E066
:100F400040E05FEBC701B6010E945F1B18160CF072
:100F5000D3C020E030E040E85FE360918E01709103
:100F60008F0180919001909191010E943E199B0107
:100F7000AC01612F702F832D922D0E945F1B1816DC
:100F80000CF0BAC08091000190910101DC01AA0F20
:100F9000BB1FAA0FBB1FBF8FAE8FFD01E85CFE4FCA
:100FA0002081318142815381612F702F832D922DB9
:100FB0000E94D91987FFA0C0EE8DFF8DE85DFE4F1E
:100FC0002081318142815381612F702F832D922D99
:100FD0000E945F1B18160CF08FC0A12CB12C312C75
:100FE000212C05E010E080E190E00E94DA012DEC78
:100FF0003CEC4CE45EE30E946C1B9B01AC01B50130
:10100000832D922D0E943E195B01382E292E68EC0B
:1010100070E080E090E00E94E30A2FEF40E060E0A3
:1010200084E192E00E94DB0B20E040E060E084E19C
:1010300092E00E94DB0B01501109A9F61A2D0B2D2D
:101040008A2D9B2DA32DB22D80938E0190938F011D
:10105000A0939001B09391016A2D7B2D832D922D49
:101060000E94E7024B015C01E0910001F091010157
:10107000FF8FEE8F20E030E040E05FE30E943E19FA
:101080000E94571AEE8DFF8DEE0FFF1FE255FE4FA7
:10109000718360832E8D3F8D220F331F220F331FEC
:1010A000A9014E565E4F5BA34AA380E090E00E94E8
:1010B000861A2FE632E143E85AE30E946C1BAAA18C
:1010C000BBA16D937D938D939C9313978E8D9F8D74
:1010D0000197909301018093000197FF0DC010923A
:1010E00084011092850110928601109287018091EF
:1010F00089018F5F809389018091000190910101A6
:1011000003970CF09BC120E030E0A901C701B601B4
:101110000E945F1B18165CF420E030E040E050E4D1
:10112000C701B6010E94D91987FF88C10BC020E012
:1011300030E040E050ECC701B6010E945F1B18167A
:101140000CF07CC1C0908E01D0908F01E090900196
:10115000F090910120E030E040E05FE3C701B6018C
:101160000E943E199B01AC01612F702F832D922D9F
:101170000E94D91987FF62C120E030E040E05FE3C0
:10118000C701B6010E943D199B01AC01612F702F70
:10119000832D922D0E945F1B18160CF04FC120E08A
:1011A0004FEF60E084E192E00E94DB0B20E040E042
:1011B00060E084E192E00E94DB0B40C180918401F9
:1011C00090918501A0918601B09187010196A11DA2
:1011D000B11D8093840190938501A0938601B09303
:1011E00087014091480150914901052E000C660B82
:1011F000770B481759076A077B0708F01FC1A3013F
:10120000920160914A0170914B0180914C01909143
:101210004D010E943D1920E030E040E251E40E947F
:101220003E190E94571A80E090E00E94861A20E042
:1012300030E040E251E40E946C1B0E94571A709308
:10124000B7016093B60180E090E00E94861A2DEC11
:101250003CEC4CEC5DE30E946C1B20E030E040E293
:1012600051E40E943D196093A2017093A301809301
:10127000A4019093A5010E94E30381E08F93EDB751
:10128000FEB7B1970FB6F894FEBF0FBEEDBFADB776
:10129000BEB7119681E2E5EDF1E001900D928A95DD
:1012A000E1F784E192E00E94E40C809189018F5F74
:1012B000809389010FB6F894DEBF0FBECDBFBEC0CC
:1012C000C501B4010E947B024B015C012E8D3F8D54
:1012D00048A159A1C301B2010E943E192B013C0152
:1012E00080918801882319F08130D9F0A7C005E0EA
:1012F00010E068EC70E080E090E00E94E30A2FEFDD
:1013000040E06FEF84E192E00E94DB0B20E040E0E0
:1013100060E084E192E00E94DB0B0150110949F783
:1013200088C020E030EC4DE754E4C501B4010E94D0
:10133000D91987FF71C020E030E446E754E4C501C5
:10134000B4010E945F1B18160CF066C020E030E06C
:10135000A901C701B6010E945F1B18165CF420E0CA
:1013600030E040E05FE3C701B6010E94D91987FF72
:1013700053C00BC020E030E040E05FEBC701B60196
:101380000E945F1B18160CF047C0C12CD12C7601AF
:1013900005E010E080E190E00E94DA012DEC3CECE9
:1013A0004CE45EE30E946C1B9B01AC01C701B601DB
:1013B0000E943E196B017C0168EC70E080E090E0D7
:1013C0000E94E30A2FEF40E060E084E192E00E9497
:1013D000DB0B20E040E060E084E192E00E94DB0B68
:1013E00001501109B9F6C701B6010E94E7020E9437
:1013F0007B022FE632E143E85AE30E946C1B6093C4
:101400000401709305018093060190930701809178
:1014100088018F5F80938801809102019091030180
:101420009C0121503109309303012093020197FF61
:1014300005C0809188018F5F809388018091890128
:10144000833071F420E04FEF60E084E192E00E948D
:10145000DB0B20E040E060E084E192E00E94DB0BE7
:10146000C501B4010E94910220E030E040E05FE35A
:101470000E943E190E94501A6B017C01C301B20107
:101480000E94501ADC01CB01B6010E941B0440E10E
:1014900057E260E070E084E192E00E94140DA396B0
:1014A0000FB6F894DEBF0FBECDBFDF91CF911F9175
:1014B0000F91FF90EF90DF90CF90BF90AF909F90F3
:1014C0008F907F906F905F904F903F902F900895F6
:1014D0001F920F920FB60F9211242F933F938F9369
:1014E0009F93AF93BF938091F7019091F801A091E2
:1014F000F901B091FA013091F60126E0230F2D3762
:1015000020F40296A11DB11D05C029E8230F039602
:10151000A11DB11D2093F6018093F7019093F8016E
:10152000A093F901B093FA018091FB019091FC0125
:10153000A091FD01B091FE010196A11DB11D809306
:10154000FB019093FC01A093FD01B093FE01BF91BC
:10155000AF919F918F913F912F910F900FBE0F9060
:101560001F9018952FB7F8946091F7017091F801CA
:101570008091F9019091FA012FBF08953FB7F89437
:101580008091FB019091FC01A091FD01B091FE01C1
:1015900026B5A89B05C02F3F19F00196A11DB11DCE
:1015A0003FBFBA2FA92F982F8827820F911DA11D09
:1015B000B11DBC01CD0143E0660F771F881F991F45
:1015C0004A95D1F70895CF92DF92EF92FF92CF9391
:1015D000DF936B017C010E94BE0AEB01C114D104B0
:1015E000E104F10479F00E94BE0A6C1B7D0B683E99
:1015F0007340A0F381E0C81AD108E108F108C8518E
:10160000DC4FECCFDF91CF91FF90EF90DF90CF9048
:101610000895789484B5826084BD84B5816084BD6A
:1016200085B5826085BD85B5816085BDEEE6F0E05B
:10163000808181608083E1E8F0E0108280818260B7
:101640008083808181608083E0E8F0E08081816038
:101650008083E1EBF0E0808184608083E0EBF0E068
:10166000808181608083EAE7F0E08081846080830C
:1016700080818260808380818160808380818068B6
:1016800080831092C1000895089520E030E0A90100
:101690008BE292E00C94E613CF93DF9300D0CDB7AA
:1016A000DEB7BE016F5F7F4F8BE292E00E9489122E
:1016B000892B21F481E09981911101C080E00F9084
:1016C0000F90DF91CF910895CF93DF9300D0CDB7E6
:1016D000DEB7BE016F5F7F4F8BE292E00E948912FE
:1016E000892B21F481E09A81911101C080E00F9053
:1016F0000F90DF91CF910895CF93DF931F92CDB7D5
:10170000DEB71982BE016F5F7F4F8BE292E00E94CD
:10171000861389810F90DF91CF910895CF93DF9346
:101720001F92CDB7DEB71982BE016F5F7F4F8BE28C
:1017300092E00E94B613298130E0A0E1B7E20E9456
:10174000741C68517A408D4E9F4F21ED38E140E086
:1017500050E00E944C1CC9010F90DF91CF91089579
:10176000CF93DF93CDB7DEB72E970FB6F894DEBFD9
:101770000FBECDBFBE01685F7F4F8BE292E00E943B
:10178000561387E0FE013896DE01119601900D9206
:101790008A95E1F729813A814B815C816D817E8157
:1017A0008F8190E02E960FB6F894DEBF0FBECDBFAE
:1017B000DF91CF910895CF93DF9300D01F92CDB7E3
:1017C000DEB769834A832B83BE016F5F7F4F8BE255
:1017D00092E00E9420140F900F900F90DF91CF9114
:1017E00008950F931F93CF93DF93CDB7DEB72E9756
:1017F0000FB6F894DEBF0FBECDBF8E01085F1F4F3E
:10180000B8018BE292E00E942613892B11F487E045
:1018100006C087E0F801982F11929A95E9F7F80130
:10182000DE01119601900D928A95E1F729813A81A6
:101830004B815C816D817E818F8190E02E960FB609
:10184000F894DEBF0FBECDBFDF91CF911F910F91F6
:1018500008950F931F93CF93DF93CDB7DEB72E97E5
:101860000FB6F894DEBF0FBECDBF0E94F10B2887E4
:1018700039874A875B876C878E8781E08D8787E011
:10188000FE013896DE01119601900D928A95E1F7DE
:1018900009811A812B813C814D815E816F818BE2B0
:1018A00092E00E9427142E960FB6F894DEBF0FBE6A
:1018B000CDBFDF91CF911F910F9108951F93CF93CB
:1018C000DF93CDB7DEB765970FB6F894DEBF0FBED6
:1018D000CDBF2531A8F4122FCA016983422F50E0F1
:1018E000BC01CE0102960E94831C41E0410FBE0163
:1018F0006F5F7F4F8BE292E00E94031481E001C092
:1019000080E065960FB6F894DEBF0FBECDBFDF91C5
:10191000CF911F910895CF93DF93CDB7DEB7659731
:101920000FB6F894DEBF0FBECDBF69832A833B8319
:101930004C835D8345E0BE016F5F7F4F8BE292E099
:101940000E94031481E065960FB6F894DEBF0FBEC7
:10195000CDBFDF91CF910895CF93DF93EC01642F3A
:10196000FC01319684E1DF011D928A95E9F7AE0111
:101970008BE292E00E94B912CE01DF91CF910895DF
:1019800084E1E0E0F2E0DF011D928A95E9F74FEF94
:1019900051E08BE292E00E94B912EFEFF1E0228178
:1019A0006381862F90E0A0E0B0E0DC0199278827D2
:1019B000922B2181822B2481BC01CD01922B089591
:1019C0008BE292E00C94F612CF93DF93CDB7DEB7A3
:1019D00081E2FE013596DF0101900D928A95E1F7D3
:1019E0008BE292E0DF91CF910C940A148BE292E0AB
:1019F0000C946814CF9353988BE292E00E944E149B
:101A00008BE292E00E94EF0DCFE1C15051F061E016
:101A100070E080E090E00E94E30A4B9BF6CF81E00B
:101A200001C080E0CF910895CF92DF92EF92FF92B4
:101A3000CF93DF93EC016A017B01539860E070E083
:101A40008BE292E00E9495108AE0C816D104E1046E
:101A5000F10418F4C701B60137C0B701A601CE01E1
:101A60000E94FA0C81113BC081E3C81685E7D806B5
:101A7000E104F104E0F08EE1C816D104E104F104C0
:101A800030F08EE1C81AD108E108F10803C0C12C7A
:101A9000D12C7601B701A601CE010E94FA0CC11427
:101AA000D104E104F104C1F0882329F318C08FE1C7
:101AB000C816D104E104F10408F44FC0C701B6010F
:101AC0006E51710981099109DF91CF91FF90EF90DB
:101AD000DF90CF900C94E30A882309F43EC0E09095
:101AE0007A00EE1CEE24EE1C29F080917A008F77AC
:101AF00080937A00F0B6FF1CFF24FF1C19F080B71A
:101B00008F7780BF40E050E064E47BE081E00E949A
:101B10001E1883B7817F846083BFF8944B9B0DC0F0
:101B200083B7816083BF85B7806685BF8F7D85BFA2
:101B30007894889583B78E7F83BF789481E00E94E4
:101B40003E18EE2029F080917A00806880937A0018
:101B5000FF2019F080B7806880BFDF91CF91FF90A0
:101B6000EF90DF90CF900895089508950895CF9253
:101B7000DF92EF92FF92DC01CB0180959095A095CA
:101B8000B095FA01240F351FE217F307E9F04191F0
:101B9000842748E050E06C017D01F694E794D794E7
:101BA000C79480FF0BC0D701C60160E2862763E8B7
:101BB000962768EBA6276DEEB62702C0D701C601AF
:101BC0004150510941F7E0CFBC01CD0160957095BE
:101BD00080959095FF90EF90DF90CF9008952091A1
:101BE0004E012223E1F3FC0111A20895DC01ED91E5
:101BF000FC91DB0114964D915C9115976D917C9150
:101C00000280F381E02D09948F929F92AF92BF9250
:101C1000CF93C22FCC0FCC0FCC0FFA0130E0DF01F5
:101C2000A41BB50BA217B3076CF4C8504B015C01A1
:101C30000C2E04C0B694A794979487940A94D2F774
:101C40008192EDCFCF91BF90AF909F908F900895EC
:101C50001F920F920FB60F921124CF92DF92EF9244
:101C6000FF920F931F932F933F934F935F936F9325
:101C70007F938F939F93AF93BF93EF93FF93CF93F4
:101C8000DF931F92CDB7DEB78091C00082FD0CC0FC
:101C90008091C6008983E0912902F0912A02209167
:101CA0002802309721F40FC08091C6009EC12223E4
:101CB00021F090E28927898306C08D3731F481E0D5
:101CC0008093280292C121111BC089818E3719F49B
:101CD000309749F415C08F3721F4E630F10519F437
:101CE0000FC08D3769F410922702109226021092CD
:101CF000250210922402109223021092220214C094
:101D000010922802E730F10508F06FC1E55CFF4F43
:101D10000C946E1C89818E3709F067C181E090E0D8
:101D200090932A028093290210925D025EC18981FC
:101D30008093250222E030E030932A02209329028A
:101D400090E090935B0280935A0221E030E0AE0174
:101D50004F5F5F4F60E070E0CB011DC08981109242
:101D600026028093270280912502815080932502CC
:101D700083E090E090932A028093290260911E02F2
:101D800070911F02809120029091210221E030E0A9
:101D9000AE014F5F5F4F0E94B70D60931E027093BC
:101DA0001F0280932002909321021FC129818091FC
:101DB000260290912702822B90932702809326027D
:101DC00020912502215020932502813035E593078B
:101DD00019F484E194E02BC08130A0E59A0719F44E
:101DE0008BEC93E024C08230B0E59B0719F482E8C5
:101DF00093E01DC0833030E6930791F489E393E0CC
:101E0000909323028093220281E080935C021092DF
:101E100081031092800310927F0310927E030BC007
:101E2000892B19F08EE592E002C080EF92E090934A
:101E3000230280932202222319F084E090E09ACFBB
:101E400085E090E090932A028093290284E08093B9
:101E5000250294CF209122023091230221153105D1
:101E6000B9F11981F901EB5BFF4F808191810196F6
:101E700065E470E00E94381CD901A95BBF4F4D9109
:101E80005C918417950741F040815181D901A40FDD
:101E9000B51F1C939183808380912502815080938C
:101EA000250260911E0270911F0280912002909184
:101EB000210221E030E0AE014F5F5F4F0E94B70D7D
:101EC00060931E0270931F02809320029093210260
:101ED00080912502811189C085E090E090932A02CB
:101EE0008093290284E0809325027FC0809125029F
:101EF000815080932502E3E0F0E0E81BF109E65E03
:101F0000FD4F99819083811170C060911E02709184
:101F10001F02809120029091210224E046E152E0CC
:101F20000E94040E86E090E090932A02809329029A
:101F30005CC080912602909127028130A5E59A0726
:101F400061F5E0912202F091230223E030E08F015D
:101F50000B5B1F4F85E4E82EF12C6F01B7E4CB0E2D
:101F6000D11CD8018D919C910196B7010E94381C1B
:101F7000D6014D915C918417950759F0D8014D9188
:101F80005C91DA01AE0FBF1F1C92D80111969C9391
:101F90008E932150310929F705C08330904611F402
:101FA00010925C02E6E1F2E0AAE1B2E080E0219169
:101FB0009D91291301C08F5F22E0EA31F207B9F742
:101FC000843019F481E080935D0210922A0210920D
:101FD00029021092270210922602109225021092D6
:101FE000240210922302109222020F90DF91CF91CF
:101FF000FF91EF91BF91AF919F918F917F916F91E1
:102000005F914F913F912F911F910F91FF90EF9012
:10201000DF90CF900F900FBE0F901F9018951F92DA
:102020000F920FB60F9211242F933F934F935F930C
:102030006F937F938F939F93AF93BF93EF93FF9390
:102040002091EC023091ED028091EE029091EF022E
:102050002817390769F460915D048DE00E940D191D
:102060008091C1008F7B8093C10081E080934E01FD
:10207000FF91EF91BF91AF919F918F917F916F9160
:102080005F914F913F912F910F900FBE0F901F9036
:1020900018951F920F920FB60F9211242F933F9312
:1020A0005F936F937F938F939F93AF93BF93EF93C0
:1020B000FF932091EC023091ED028091EE0290911D
:1020C000EF022817390759F48091C1008F7D809362
:1020D000C1008091C10080648093C10016C0E0916E
:1020E000EE02F091EF02E955FD4F20818091EE0262
:1020F0009091EF02019665E470E00E94381C909385
:10210000EF028093EE022093C600FF91EF91BF9102
:10211000AF919F918F917F916F915F913F912F919F
:102120000F900FBE0F901F901895FC01611571055F
:1021300099F487E090E0A0E0B0E082A393A3A4A389
:10214000B5A38DE090E0A0E0B0E086A397A3A0A7A0
:10215000B1A710925D0408956130710579F412A25F
:1021600013A214A215A216A217A210A611A681E00E
:1021700080935D0461E08DE00C940D1908958F92B9
:102180009F92AF92BF92CF92DF92EF92FF920F9306
:102190001F93CF93C1E0CF9385E08F9387E08F9318
:1021A00083E08F9384E08F9386EC882E912C92ECC1
:1021B000A92EB12C21ECC22ED12C30ECE32EF12C27
:1021C00004EC10E025EC30E047EA52E060EF72E00A
:1021D0008BE292E00E943917EBE2F2E083E591E0B6
:1021E00091838083C6A78EE592E093A782A78DE5B1
:1021F00092E095A784A710925D0287E090E0A0E0AE
:10220000B0E082A393A3A4A3B5A38DE090E0A0E0E7
:10221000B0E086A397A3A0A7B1A70F900F900F904F
:102220000F900F90CF911F910F91FF90EF90DF9043
:10223000CF90BF90AF909F908F90089540E056E967
:1022400060E070E00E94361561E08DE00E94D118D8
:1022500060E08DE00E940D192091EC023091ED02BA
:102260008091EE029091EF022817390741F481E046
:1022700080934E0160915D048DE00C940D190895DA
:102280001F93CF93DF9323E8260F233040F4162FBC
:10229000EC016DE70E94F61660E26127CE01DF9146
:1022A000CF911F910C94F6162F923F924F925F920E
:1022B0006F927F92AF92BF92CF92DF92EF92FF9296
:1022C0000F931F93CF93DF9300D000D0CDB7DEB72D
:1022D0007C01162F072F5A01690180911502811187
:1022E00007C08BE292E00E941E1181E080931502EC
:1022F00081E4C816D10408F080C010924E0161E05C
:102300008DE00E940D192091EC023091ED02809138
:10231000EE029091EF022817390759F4F70162A1F4
:1023200073A184A195A1611571058105910509F03D
:1023300067C06EE7C7010E94F61682E08C0D8983A4
:102340000A831B8323E030E0AE014F5F5F4F60E004
:1023500070E0CB010E94B70D1B012C013E01F4E09F
:102360006F0E711C8E010F5F1F4FF80161918F017D
:10237000C7010E94401106151705B9F79601A5017E
:10238000C201B1010E94B70D2B013C0110E0812F69
:1023900090E08C159D0548F4F501E80FF91F608168
:1023A000C7010E9440111F5FF2CF24E0AE014F5FD2
:1023B0005F4FC301B2010E94040E8E010F5F1F4FD9
:1023C00084E0B82EB00EF80161918F01C7010E9420
:1023D0004011B012F8CF6FE7C7010E94F616F7015F
:1023E00066A177A180A591A561157105810591056B
:1023F00011F00E94E30AC60106C08FEF9FEF03C0F1
:102400000E94E30A96CF0F900F900F900F90DF91EC
:10241000CF911F910F91FF90EF90DF90CF90BF90E1
:10242000AF907F906F905F904F903F902F90089566
:102430004F925F926F927F92AF92BF92CF92DF9254
:10244000EF92FF920F931F93CF93DF93EC01F894D9
:102450008AA59BA5FC01E95BFF4F11821082329790
:1024600011821082ECA5FDA510827894CE010E9405
:1024700054110E94B20A688779878A879B87ECA5E6
:10248000FDA58081811111C00E94B20A488459843F
:102490006A847B84DC01CB0184199509A609B709FC
:1024A0008A159B05AC05BD0550F3ECA5FDA5808103
:1024B0008823F1F06AA57BA5FB01EB5BFF4F8081D0
:1024C0009181D7014D915C918417950710F440815B
:1024D0005181C8010E94831CEAA5FBA5EB5BFF4F5D
:1024E00080819181F7019183808380E090E002C038
:1024F0008FEF9FEFDF91CF911F910F91FF90EF90A2
:10250000DF90CF90BF90AF907F906F905F904F9093
:102510000895AF92BF92CF92DF92EF92FF920F9306
:102520001F93CF93DF9300D0CDB7DEB722E030E02A
:102530003A83298324E6A22EB12CC12CD12C9E01F2
:102540002F5F3F4F79018B0120E030E040E050E009
:1025500060E375E00E9418120F900F90DF91CF9109
:102560001F910F91FF90EF90DF90CF90BF90AF90B1
:1025700008958F929F92AF92BF92CF92DF92EF9287
:10258000FF920F931F93CF93DF9300D01F92CDB78D
:10259000DEB74A0125E130E03A8329836B8324E6E4
:1025A000A22EB12CC12CD12C9E012F5F3F4F79015F
:1025B0008A0121E030E0AE014D5F5F4F65E175E0DB
:1025C0000E94181229812150F40120830F900F904E
:1025D0000F90DF91CF911F910F91FF90EF90DF90BF
:1025E000CF90BF90AF909F908F900895AF92BF9281
:1025F000CF92DF92EF92FF920F931F93CF93DF93CF
:1026000000D0CDB7DEB721E230E03A83298324E65B
:10261000A22EB12CC12CD12C9E012F5F3F4F7901EE
:102620008B0120E030E040E050E060E175E00E9486
:1026300018120F900F90DF91CF911F910F91FF9083
:10264000EF90DF90CF90BF90AF900895AF92BF9280
:10265000CF92DF92EF92FF920F931F93CF93DF936E
:1026600000D0CDB7DEB727E030E03A83298324E6F7
:10267000A22EB12CC12CD12C9E012F5F3F4F79018E
:102680008B0120E030E040E050E062E075E40E9421
:1026900018120F900F90DF91CF911F910F91FF9023
:1026A000EF90DF90CF90BF90AF900895AF92BF9220
:1026B000CF92DF92EF92FF920F931F93CF93DF930E
:1026C00000D0CDB7DEB727E030E03A83298324E697
:1026D000A22EB12CC12CD12C9E012F5F3F4F79012E
:1026E0008B0120E030E040E050E060E170E20E94C9
:1026F00018120F900F90DF91CF911F910F91FF90C3
:10270000EF90DF90CF90BF90AF900895AF92BF92BF
:10271000CF92DF92EF92FF920F931F93CF93DF93AD
:1027200000D0CDB7DEB721E030E03A83298324E63C
:10273000A22EB12CC12CD12C9E012F5F3F4F7901CD
:102740008B0120E030E040E050E061E170E20E9467
:1027500018120F900F90DF91CF911F910F91FF9062
:10276000EF90DF90CF90BF90AF900895AF92BF925F
:10277000CF92DF92EF92FF920F931F93CF93DF934D
:1027800000D0CDB7DEB721E030E03A83298324E6DC
:10279000A22EB12CC12CD12C9E012F5F3F4F79016D
:1027A0008B0120E030E040E050E065E170E20E9403
:1027B00018120F900F90DF91CF911F910F91FF9002
:1027C000EF90DF90CF90BF90AF900895CF93DF93BD
:1027D00000D000D01F92CDB7DEB729833A834B8358
:1027E0005C836D8325E030E0AE014F5F5F4F62E1B7
:1027F00075E00E9454110F900F900F900F900F9062
:10280000DF91CF910895242F30E0AB0164E175E0B2
:102810000C945411CF93DF93CDB7DEB72EA12111C5
:1028200003C060E475E002C061E175E021E230E0E0
:10283000AE014B5F5F4F0E945411DF91CF9108951D
:10284000AB0123E030E061E070E20C9454110F938F
:102850001F93CF93DF93CDB7DEB727970FB6F894CA
:10286000DEBF0FBECDBF09831A832B833C834D830C
:102870005E836F8327E030E0AE014F5F5F4F61E022
:1028800075E40E94541127960FB6F894DEBF0FBE70
:10289000CDBFDF91CF911F910F910895CF93DF931B
:1028A00000D000D0CDB7DEB749835A836B837C83D9
:1028B00024E030E0AE014F5F5F4F60E070E30E94C4
:1028C00054110F900F900F900F90DF91CF910895BA
:1028D000CF93DF931F92CDB7DEB7698321E030E05D
:1028E000AE014F5F5F4F60E170E30E9454110F90A3
:1028F000DF91CF910895CF93DF931F92CDB7DEB7CD
:10290000698321E030E0AE014F5F5F4F60E070E02F
:102910000E94541181E090E00F90DF91CF910895D3
:10292000CF92DF92EF92FF920F931F93CF93DF939B
:102930006C017B01EA0161157105A1F1209791F10C
:102940004134510508F1E0E0F0E00FE310E09801B8
:102950002E1B3F0BA7014E0F5F1F60E070E0C6010A
:102960000E9454110C171D0701F1C801805C9F4F94
:10297000C817D90708F4CE01F801C817D90710F015
:102980008C01E5CFCE0112C09A01AB0160E070E08E
:10299000DF91CF911F910F91FF90EF90DF90CF903B
:1029A0000C94541180E090E001C0C801DF91CF91F8
:1029B0001F910F91FF90EF90DF90CF900895CF92ED
:1029C000DF92EF92FF920F931F93CF93DF93CDB7D8
:1029D000DEB7C054D1090FB6F894DEBF0FBECDBF2D
:1029E0006115710589F16C017B0100E010E0F701D0
:1029F00024912223F1F0C8010196A1E0B0E0AC0FD0
:102A0000BD1FA00FB11F2C938034910529F02FEF2B
:102A1000E21AF20A8C01EBCF20E430E0AE014F5F06
:102A20005F4F60E070E0C6010E94541180E090E0CA
:102A3000EECF9801AE014F5F5F4F60E070E0C601DE
:102A40000E945411C80102C080E090E0C05CDF4FDA
:102A50000FB6F894DEBF0FBECDBFDF91CF911F91AF
:102A60000F91FF90EF90DF90CF900895CF92DF927B
:102A7000EF92FF920F931F93CF93DF93EC016A01C4
:102A80007B01EC89FD8981E090E008A002C0880FFD
:102A9000991F0A94E2F7808360E874E88EE190E081
:102AA000A70196010E944C1C89019A01015011094D
:102AB0002109310936952795179507959801011534
:102AC000104108F042C0E889F9893083EA89FB891E
:102AD000208319A2EE89FF89408181E090E09C016A
:102AE0000C8C02C0220F331F0A94E2F7242B2083A0
:102AF000EE89FF8940819C010D8C02C0220F331F9B
:102B00000A94E2F7242B2083EE89FF8940819C01FF
:102B10000E8C02C0220F331F0A94E2F7242B20836D
:102B2000EE89FF8920810F8C02C0880F991F0A94BB
:102B3000E2F7809582238083DF91CF911F910F91DF
:102B4000FF90EF90DF90CF900895EC89FD8910827F
:102B500060E472E48FE090E0A70196010E944C1CB3
:102B6000DA01C9010197A109B109B695A795979511
:102B700087959C01A8CFCF92DF92EF92FF921F938F
:102B8000CF93DF93EC016A017B01122FEC89FD8961
:102B900081E090E008A002C0880F991F0A94E2F734
:102BA000808360E874E88EE190E0A70196010E94BE
:102BB0004C1CDA01C9010197A109B109B695A79585
:102BC00097958795AC01411580E1580708F043C0FF
:102BD000E889F9895083EA89FB894083E88DF98D7A
:102BE0001083EE89FF89408181E090E09C010C8C8C
:102BF00002C0220F331F0A94E2F7242B2083EE89B0
:102C0000FF8940819C010D8C02C0220F331F0A9462
:102C1000E2F7242B2083EE89FF8940819C010E8CF2
:102C200002C0220F331F0A94E2F7242B2083EE897F
:102C3000FF8920810F8C02C0880F991F0A94E2F748
:102C4000809582238083DF91CF911F91FF90EF9039
:102C5000DF90CF900895EC89FD89108260E472E4E2
:102C60008FE090E0A70196010E944C1CBA01A901D7
:102C700041505109610971097695679557954795B6
:102C8000A7CFCF93DF93FC0186859785EC01CB5BC3
:102C9000DF4FDC01A95BBF4F288139818D919C9169
:102CA000119728173907C1F7A689B7893C9181E0A8
:102CB00090E0AC01048C02C0440F551F0A94E2F767
:102CC000242F209523232C93A689B7893C91AC010E
:102CD000058C02C0440F551F0A94E2F7242F20955B
:102CE00023232C93A689B7893C91AC01068C02C0A2
:102CF000440F551F0A94E2F7242F209523232C9389
:102D0000A689B7892C91078C02C0880F991F0A9455
:102D1000E2F7809582238C9384859585FC01E95B9D
:102D2000FF4F20813181329731832083DF91CF9112
:102D30000895FC0124853585F901EB5BFF4F808107
:102D400091813296208131818B5B9F4F821B930B47
:102D500065E470E00E94381C0895DC011C96ED913A
:102D6000FC911D97DF01AB5BBF4F2D913C911197FB
:102D700012968D919C9111972817390739F08D91F2
:102D80009C91E80FF91F808190E008958FEF9FEFED
:102D90000895FC01A485B585FD01EB5BFF4F208103
:102DA00031813296808191812817390789F080819D
:102DB0009181A80FB91F2C9180819181019665E4C2
:102DC00070E00E94381C91838083822F90E00895E8
:102DD0008FEF9FEF0895FC0181A1882329F0A4893A
:102DE000B5898C9186FFFBCF11A20895CF93DF9315
:102DF000FC01462FC685D7859E012B5B3F4FD9012D
:102E00008D919C91019665E470E00E94381CDE0172
:102E1000A95BBF4F6D917C91119786179707D1F3EE
:102E2000D9012D913C91DE01A20FB31F4C93A685D1
:102E3000B785AB5BBF4F11969C938E93A689B789DC
:102E40002C9181E090E0078C02C0880F991F0A94B2
:102E5000E2F7822B8C9381E081A30488F589E02D31
:102E600080818064808381E090E0DF91CF9108953C
:102E700008958F929F92AF92BF92CF92DF92EF927E
:102E8000FF920F931F93CF93DF93CDB7DEB7FC0173
:102E90001382128288EE93E0A0E0B0E084839583F1
:102EA000A683B7838DE691E09183808375876487DD
:102EB00057874687318B208B138B028BF58AE48AE8
:102EC000D78AC68AB18EA08E938E828E8F85848F8C
:102ED0008889858F8989868F8A89878F8B8980A346
:102EE000DF91CF911F910F91FF90EF90DF90CF90E6
:102EF000BF90AF909F908F900895CF92DF92EF9206
:102F0000FF920F931F93CF93DF936C01EB017B0133
:102F1000E40EF51E00E010E0CE15DF0561F06991CA
:102F2000D601ED91FC910190F081E02DC60109954B
:102F3000080F191FF1CFC801DF91CF911F910F9199
:102F4000FF90EF90DF90CF900895EF92FF920F9354
:102F50001F93CF93DF937C01FB0100E010E06491AD
:102F6000EF012196662361F0D701ED91FC9101906C
:102F7000F081E02DC7010995080F191FFE01EFCF61
:102F8000C801DF91CF911F910F91FF90EF900895AD
:102F9000AF92BF92CF92DF92EF92FF920F931F9367
:102FA000CF93DF936C017B01C0E0D0E000E010E044
:102FB000D70114968D919C911597C817D90788F45D
:102FC000D601ED91FC91A080B180BE01C7010E94A5
:102FD000FD17682FC601F5010995080F191F2196E5
:102FE000E7CFC801DF91CF911F910F91FF90EF9034
:102FF000DF90CF90BF90AF900895FC012481358180
:103000006217730748F480819181009729F0FC01D1
:10301000E60FF71F8081089580E008950E94090B54
:103020008CB58F7B8CBD0E943803C8E3D7E10E942A
:1030300099042097E1F30E943817F9CF8230E8F421
:10304000E82FF0E0EE0FFF1FE25AFB4F7183608321
:10305000813041F0809169008C7F482B409369005A
:10306000E89A089580916900440F551F440F551F39
:10307000837F482B40936900E99A0895823068F471
:10308000813011F0E89801C0E998E82FF0E0EE0FE8
:10309000FF1FE25AFB4F1182108208951F920F9278
:1030A0000FB60F9211242F933F934F935F936F931B
:1030B0007F938F939F93AF93BF93EF93FF938091F1
:1030C0005E0490915F04892B29F0E0915E04F091F9
:1030D0005F040995FF91EF91BF91AF919F918F91FF
:1030E0007F916F915F914F913F912F910F900FBE04
:1030F0000F901F9018951F920F920FB60F921124E8
:103100002F933F934F935F936F937F938F939F93EF
:10311000AF93BF93EF93FF9380916004909161040C
:10312000892B29F0E0916004F09161040995FF91E9
:10313000EF91BF91AF919F918F917F916F915F912F
:103140004F913F912F910F900FBE0F901F901895A8
:10315000833081F028F4813099F08230A1F0089515
:103160008630A9F08730B9F08430D1F480918000A6
:103170008F7D03C0809180008F77809380000895B9
:1031800084B58F7702C084B58F7D84BD089580910A
:10319000B0008F7703C08091B0008F7D8093B00026
:1031A0000895CF93DF9390E0FC01EA53FF4F249101
:1031B000FC01E652FF4F8491882361F190E0880F73
:1031C000991FFC01E850FF4FC591D491FC01E251D9
:1031D000FF4FA591B491611109C09FB7F894888100
:1031E000209582238883EC912E230BC0623061F4FA
:1031F0009FB7F8943881822F809583238883EC9140
:103200002E2B2C939FBF06C08FB7F894E8812E2BEE
:1032100028838FBFDF91CF9108951F93CF93DF93C2
:10322000282F30E0F901EE54FF4F8491F901EA5361
:10323000FF4FD491F901E652FF4FC491CC23C9F05E
:10324000162F81110E94A818EC2FF0E0EE0FFF1F3F
:10325000E251FF4FA591B4918FB7F894111105C0B9
:103260009C91ED2FE095E92302C0EC91ED2BEC93BE
:103270008FBFDF91CF911F9108955058BB27AA2788
:103280000E9455190C94251B0E94171B38F00E94B0
:103290001E1B20F039F49F3F19F426F40C94ED1A0C
:1032A0000EF4E095E7FB0C94E71AE92F0E94361B19
:1032B00058F3BA17620773078407950720F079F46B
:1032C000A6F50C94581B0EF4E0950B2EBA2FA02DEA
:1032D0000B01B90190010C01CA01A0011124FF27C3
:1032E000591B99F0593F50F4503E68F11A16F040BE
:1032F000A22F232F342F4427585FF3CF46953795BD
:103300002795A795F0405395C9F77EF41F16BA0B81
:10331000620B730B840BBAF09150A1F0FF0FBB1F2F
:10332000661F771F881FC2F70EC0BA0F621F731F78
:10333000841F48F4879577956795B795F7959E3FD5
:1033400008F0B0CF9395880F08F09927EE0F979566
:1033500087950895DF93DD27B92FBF7740E85FE3B6
:103360001616170648075B0718F4D92F0E94641B2E
:103370009F938F937F936F930E941F1CE4E8F0E06C
:103380000E94F01A0E94251B2F913F914F915F914F
:103390000E947F1BDD2351F09058A2EA2AED3FE006
:1033A00049EC5FE3D0785D270E945519DF910C94BA
:1033B000251B0E94C31A08F481E008950E94F219A7
:1033C0000C94251B0E941E1B58F00E94171B40F0F6
:1033D00029F45F3F29F00C94E71A51110C94591B02
:1033E0000C94ED1A0E94361B68F39923B1F3552310
:1033F00091F3951B550BBB27AA2762177307840708
:1034000038F09F5F5F4F220F331F441FAA1FA9F39D
:1034100035D00E2E3AF0E0E832D091505040E6958B
:10342000001CCAF72BD0FE2F29D0660F771F881FEC
:10343000BB1F261737074807AB07B0E809F0BB0BDF
:10344000802DBF01FF2793585F4F3AF09E3F5105F3
:1034500078F00C94E71A0C94591B5F3FE4F3983E04
:10346000D4F3869577956795B795F7959F5FC9F7DC
:10347000880F911D9695879597F90895E1E0660F5D
:10348000771F881FBB1F621773078407BA0720F0D6
:10349000621B730B840BBA0BEE1F88F7E09508953F
:1034A0000E94571A6894B1110C94591B08950E94F8
:1034B0003E1B88F09F5798F0B92F9927B751B0F06D
:1034C000E1F0660F771F881F991F1AF0BA95C9F7A8
:1034D00014C0B13091F00E94581BB1E008950C94D3
:1034E000581B672F782F8827B85F39F0B93FCCF386
:1034F000869577956795B395D9F73EF49095809525
:10350000709561957F4F8F4F9F4F0895E89409C044
:1035100097FB3EF490958095709561957F4F8F4F06
:103520009F4F9923A9F0F92F96E9BB279395F6951C
:10353000879577956795B795F111F8CFFAF4BB0F9A
:1035400011F460FF1BC06F5F7F4F8F4F9F4F16C0FE
:10355000882311F096E911C0772321F09EE8872F88
:10356000762F05C0662371F096E8862F70E060E044
:103570002AF09A95660F771F881FDAF7880F9695BD
:10358000879597F90895990F0008550FAA0BE0E861
:10359000FEEF16161706E807F907C0F01216130615
:1035A000E407F50798F0621B730B840B950B39F455
:1035B0000A2661F0232B242B252B21F408950A26BB
:1035C00009F4A140A6958FEF811D811D089597F9FB
:1035D0009F6780E870E060E008959FEF80EC0895B9
:1035E000DF93CF931F930F93FF92EF92DF927B01B4
:1035F0008C01689406C0DA2EEF010E947F1BFE0149
:10360000E894A5912591359145915591A6F3EF0147
:103610000E945519FE019701A801DA9469F7DF901D
:10362000EF90FF900F911F91CF91DF9108950024AB
:103630000A941616170618060906089500240A9417
:1036400012161306140605060895092E0394000C9D
:1036500011F4882352F0BB0F40F4BF2B11F460FF2C
:1036600004C06F5F7F4F8F4F9F4F089557FD905855
:10367000440F551F59F05F3F71F04795880F97FB36
:10368000991F61F09F3F79F08795089512161306F0
:103690001406551FF2CF4695F1DF08C0161617061F
:1036A0001806991FF1CF8695710561050894089554
:1036B000E894BB2766277727CB0197F908950E94E6
:1036C000C31A08F48FEF08959B01AC0160E070E02D
:1036D00080E89FE30C94DE190E947F1B0C94251B4D
:1036E0000E94171B38F00E941E1B20F0952311F03A
:1036F0000C94E71A0C94ED1A11240C94591B0E9497
:10370000361B70F3959FC1F3950F50E0551F629FD4
:10371000F001729FBB27F00DB11D639FAA27F00D2A
:10372000B11DAA1F649F6627B00DA11D661F829F51
:103730002227B00DA11D621F739FB00DA11D621F36
:10374000839FA00D611D221F749F3327A00D611D53
:10375000231F849F600D211D822F762F6A2F112435
:103760009F5750409AF0F1F088234AF0EE0FFF1F68
:10377000BB1F661F771F881F91505040A9F79E3FBF
:10378000510580F00C94E71A0C94591B5F3FE4F349
:10379000983ED4F3869577956795B795F795E79515
:1037A0009F5FC1F7FE2B880F911D9695879597F91E
:1037B000089519F416F40C94ED1A0C94231C0E942D
:1037C0003E1BB8F39923C9F3B6F39F57550B87FFF8
:1037D0000E94311C0024A0E640EA900180585695D2
:1037E000979528F4805C660F771F881F20F02617B6
:1037F0003707480730F4621B730B840B20293129EB
:103800004A2BA69517940794202531254A2758F767
:10381000660F771F881F20F026173707480730F4F8
:10382000620B730B840B200D311D411DA09581F798
:10383000B901842F9158880F9695879508959B011B
:10384000AC010C946C1B9F3F31F0915020F4879594
:1038500077956795B795880F911D9695879597F9F8
:10386000089591505040660F771F881FD2F7089532
:10387000AA1BBB1B51E107C0AA1FBB1FA617B70796
:1038800010F0A61BB70B881F991F5A95A9F78095B2
:103890009095BC01CD010895A1E21A2EAA1BBB1B75
:1038A000FD010DC0AA1FBB1FEE1FFF1FA217B3070C
:1038B000E407F50720F0A21BB30BE40BF50B661F22
:1038C000771F881F991F1A9469F7609570958095E6
:1038D00090959B01AC01BD01CF010895EE0FFF1F34
:1038E0000590F491E02D0994A29FB001B39FC0010F
:1038F000A39F700D811D1124911DB29F700D811D1C
:103900001124911D0895FB01DC0102C001900D926C
:0C39100041505040D8F70895F894FFCFC4
:10391C0003001E000000803F5A48C0BAFEF13E3E34
:10392C0061CF0CC1A46895440000803FD9CE873F7D
:10393C007B148E3F8941903F00005C420000A04107
:10394C000000A0400000A0400000964200005C4235
:10395C000000A0410000A0411E00000090420100A8
:10396C000000007B149014DF14F60D9916C916ADE7
:10397C0016EF0DB40DB50DB60D00000000F6167D5A
:10398C0017A517C8179916C916AD16EB163615BB21
:04399C0015411600BB
:00000001FF
