:100000000C947B000C942B160C9458160C94A300A3
:100010000C94A3000C94A3000C94A3000C94A300D4
:100020000C94A3000C94A3000C94A3000C94A300C4
:100030000C94A3000C94A3000C94A3000C94A300B4
:100040000C94540A0C94A3000C945B0D0C94830E36
:100050000C94490E0C94A3000C94A3000C94A300E0
:100060000C94A3000C94A30043054705D805E805AC
:10007000010621064206084AD73B3BCE016E84BCEE
:10008000BFFDC12F3D6C74319ABD56833DDA3D00F2
:10009000C77F11BED9E4BB4C3E916BAAAABE00003B
:1000A00000803F000103040600000000000000077C
:1000B000000200000000000040020408102001803F
:1000C00001020408102001020408102004020202A8
:1000D00002020404020404040404030303030303EC
:1000E00000000000250028002B0000000000240074
:1000F00027002A00F90E11241FBECFEFD8E0DEBF83
:10010000CDBF11E0A0E0B1E0E8E7F4E302C0059064
:100110000D92A438B107D9F723E0A4E8B1E001C0FB
:100120001D92AE32B207E1F710E0C6EFD0E004C096
:100130002297FE010E941E1AC43FD107C9F70E94F0
:1001400054150C943A1A0C9400002F923F924F923F
:100150005F926F927F928F929F92AF92BF92CF9257
:10016000DF92EF92FF920F931F93CF93DF9300D014
:1001700000D000D0CDB7DEB76B017C015A013E83C1
:100180002D837724739410E001501109872C912C52
:100190001401220C331C220C331C9501220D331D3B
:1001A000D9018D919D910D90BC91A02D89839A8349
:1001B000AB83BC839C01AD01C701B6010E941E192F
:1001C00018160CF45EC0B1E08B1AB0EC9B0A880CD8
:1001D000991C880C991CF501E80DF91D408051808F
:1001E00062807380ED81FE81E80DF91D8080918031
:1001F000A280B380A3019201C701B6010E941D171E
:100200006B017C01ED81FE81E20DF31DA5019401DE
:1002100060817181828193810E941D179B01AC01D5
:10022000C701B6010E9429196B017C01A30192014B
:1002300069817A818B819C810E941D179B01AC0191
:10024000C701B6010E94AE17A50194010E941E17B6
:1002500026960FB6F894DEBF0FBECDBFDF91CF91CB
:100260001F910F91FF90EF90DF90CF90BF90AF90D4
:100270009F908F907F906F905F904F903F902F90C6
:100280000895801691060CF09ECF73947FCFCF9285
:10029000DF92EF92FF920F931F93CF93DF93EC01C6
:1002A00000E010E0C12CD12C76010C171D0784F45E
:1002B00084E192E00E94660B992787FD9095A92F13
:1002C000B92FC80ED91EEA1EFB1E0F5F1F4FEDCFC0
:1002D000C701B6010E9449186B017C01BE01882745
:1002E00077FD8095982F0E9449189B01AC01C701AA
:1002F000B6010E94AE1726E636E646EE5FE30E94A0
:10030000291920E030E040E052E40E941E17DF91FE
:10031000CF911F910F91FF90EF90DF90CF900895B4
:10032000CF92DF92EF92FF920F931F93CF93DF93C1
:10033000EC0100E010E0C12CD12C76010C171D0758
:1003400084F484E192E00E94660B992787FD9095E2
:10035000A92FB92FC80ED91EEA1EFB1E0F5F1F4F13
:10036000EDCFC701B6010E9449186B017C01BE01A7
:10037000882777FD8095982F0E9449189B01AC0132
:10038000C701B6010E94AE1726E636E646EE5FE3E9
:100390000E94291920E030E040E052E40E941E173C
:1003A000DF91CF911F910F91FF90EF90DF90CF9051
:1003B00008952F923F924F925F926F927F928F9209
:1003C0009F92AF92BF92CF92DF92EF92FF920F93E4
:1003D0001F93CF93DF93CDB7DEB727970FB6F8946F
:1003E000DEBF0FBECDBF1C0100E010E0C12CD12C40
:1003F0007601260137014601570102151305ECF578
:1004000084E192E00E949A0B29833A834B835C83B8
:100410006D837E8369817A81882777FD8095982F07
:100420000E9449189B01AC01C501B4010E941E172E
:100430004B015C016B817C81882777FD8095982F2B
:100440000E9449189B01AC01C301B2010E941E1712
:100450002B013C016D817E81882777FD8095982F47
:100460000E9449189B01AC01C701B6010E941E17EA
:100470006B017C010F5F1F4FC0CFA5019401C50127
:10048000B4010E9429194B015C01A7019601C70123
:10049000B6010E9429199B01AC01C501B4010E945B
:1004A0001E170E9490199B01AC01C301B2010E946A
:1004B000AE170E94821723E333E345E652E40E941D
:1004C000291927960FB6F894DEBF0FBECDBFDF9176
:1004D000CF911F910F91FF90EF90DF90CF90BF9041
:1004E000AF909F908F907F906F905F904F903F90D4
:1004F0002F9008950F932FE632E143E85AE30E94CC
:10050000291904E028E131E042E951E00E94A50008
:1005100020E030E04AE754E40E9429190F91089541
:10052000CF92DF92EF92FF920F931F93CF93DF93BF
:10053000CDB7DEB760970FB6F894DEBF0FBECDBF64
:10054000C0900401D0900501E0900601F0900701F1
:10055000C986DA86EB86FC8600E010E020EC3FE3FB
:100560000D871E872F87388BC12CD12C40E8E42EB5
:100570004FE3F42EC982DA82EB82FC820D831E8364
:100580002F8338872FE632E143E85AE30E94291986
:1005900002E09E012F5F3F4FAE01475F5F4F0E9419
:1005A000A50020E030E04AE754E40E942919609653
:1005B0000FB6F894DEBF0FBECDBFDF91CF911F9174
:1005C0000F91FF90EF90DF90CF9008958F929F92C0
:1005D000AF92BF92CF92DF92EF92FF926B017C01BC
:1005E000209108013091090140910A0150910B01BD
:1005F0000E942919A70196010E942919A7019601B5
:100600000E9429194B015C0120910C0130910D01D0
:1006100040910E0150910F01C701B6010E942919A6
:10062000A70196010E9429199B01AC01C501B401E3
:100630000E941E174B015C012091100130911101A5
:100640004091120150911301C701B6010E9429196E
:100650009B01AC01C501B4010E941E172091140139
:100660003091150140911601509117010E941E17FB
:10067000FF90EF90DF90CF90BF90AF909F908F90C2
:10068000089561E084E192E00E94850C61E084E1DC
:1006900092E00E94810C65ED71E084E192E00E949D
:1006A0006B0C80E090E0FC01E655FE4FDC01AB52A4
:1006B000BE4F1C962C9120830196843191059CF3AA
:1006C0009093A7018093A60184E58093AA0189E60F
:1006D0008093AB018CE68093AC0184E78093AD01FD
:1006E0006091AE017091AF0180E090E00E944718E8
:1006F0002FE632E143E85AE30E9429196093920100
:100700007093930180939401909395016091B0014F
:100710007091B10180E090E00E9447182FE632E12D
:1007200043E85AE30E942919609396017093970158
:1007300080939801909399016091B2017091B301F7
:1007400080E090E00E9447182FE632E143E85AE348
:100750000E94291960939A0170939B0180939C01D8
:1007600090939D016091B4017091B50180E090E09B
:100770000E9447182FE632E143E85AE30E94291904
:1007800060939E0170939F018093A0019093A101BB
:100790006091B6017091B70180E090E00E94471827
:1007A0002DEC3CEC4CEC5DE30E94291920E030E09C
:1007B00040E251E40E941D176093A2017093A301CF
:1007C0008093A4019093A5018091DB019091DC01BD
:1007D0009093A9018093A801089584EF91E09093EC
:1007E000D6018093D50184E190E09093D801809365
:1007F000D70183E08093D90181E08093DA01809171
:10080000A8019091A9019093DC018093DB011092E3
:10081000DE011092DD011092E0011092DF0180E014
:1008200090E0FC01EB52FE4FDC01A655BE4F2C912F
:100830002487019684319105A4F39093A7018093B6
:10084000A60184E18093F50108950F931F93CF9340
:10085000DF938C01EB010E94ED031093DE01009306
:10086000DD01D093E001C093DF011F928DB79EB7E9
:1008700081970FB6F8949EBF0FBE8DBFADB7BEB7C0
:10088000119681E2E5EDF1E001900D928A95E1F794
:1008900084E192E00E946F0C8DB79EB782960FB6EE
:1008A000F8949EBF0FBE8DBFDF91CF911F910F9126
:1008B0000895CF93DF9384E192E00E94780BC3E028
:1008C000D0E089319140B8F068EC70E080E090E0D1
:1008D0000E94CD0A20E04FEF60E084E192E00E94A8
:1008E000D20B20E040E060E084E192E00E94D20B75
:1008F000219751F716C068EC70E080E090E00E940C
:10090000CD0A20E040E06FEF84E192E00E94D20B3C
:1009100020E040E060E084E192E00E94D20B219769
:1009200051F7DF91CF9108951092D4011092D30125
:1009300020E030E0A90164E084E192E00E94140C20
:1009400020E040E060E084E192E00C94D20B2F9232
:100950003F924F925F926F927F928F929F92AF924F
:10096000BF92CF92DF92EF92FF920F931F93CF939C
:10097000DF93CDB7DEB7A5970FB6F894DEBF0FBEF5
:10098000CDBF84E192E00E94360B20E040E060E0C1
:10099000882309F4A5C184E192E00E94D20B88E08B
:1009A00090E00E9447010E941B1870E080E090E0F8
:1009B0000E9447182091A2013091A3014091A40107
:1009C0005091A5010E941E170E941B189B01AC01AB
:1009D00062E084E192E00E94140C80E190E00E94C9
:1009E000D9010E94E6020E947A020E94900220E051
:1009F00030E040E05FE30E941E170E941B189B013D
:100A0000AC0163E084E192E00E94140C20E04FEF1F
:100A100060E084E192E00E94D20B20E040E060E0E0
:100A200084E192E00E94D20BC090D301D090D40117
:100A3000EE24D7FCE094FE2C64E084E192E00E9476
:100A4000490CC616D706E806F90681F064E084E191
:100A500092E00E94490C7093D4016093D3012FEF70
:100A600040E060E084E192E00E94D20BE091D3018B
:100A7000F091D4013197E730F10508F02CC1EC5C1E
:100A8000FF4F0C941C1A2AE04EEA51E09BC045E04F
:100A900064E172E0CE0109960E94350C85E1FE0109
:100AA0003996AEEBB1E001900D928A95E1F7EFEB4C
:100AB000F1E0AEEAB1E081918D9321E0EF3CF207E5
:100AC000D1F76091AE017091AF0180E090E00E949B
:100AD00047182FE632E143E85AE30E942919609350
:100AE000920170939301809394019093950160918A
:100AF000B0017091B10180E090E00E9447182FE6AC
:100B000032E143E85AE30E942919609396017093F9
:100B1000970180939801909399016091B20170912F
:100B2000B30180E090E00E9447182FE632E143E8ED
:100B30005AE30E94291960939A0170939B01809354
:100B40009C0190939D016091B4017091B50180E08A
:100B500090E00E9447182FE632E143E85AE30E94F2
:100B6000291960939E0170939F018093A001909337
:100B7000A1016091B6017091B70180E090E00E9400
:100B800047182DEC3CEC4CEC5DE30E94291920E069
:100B900030E040E251E40E941D176093A20170937F
:100BA000A3018093A4019093A5010E94940463C4BF
:100BB0008091A90189838091A8018A8322E0AE01F6
:100BC0004F5F5F4F65E084E192E00E94E80BEDCF5C
:100BD00045E064E172E0CE0109960E94350C85E1A2
:100BE000FE013996AEEBB1E001900D928A95E1F7E6
:100BF0008091BF019091C0019093A9018093A801B9
:100C0000D4CF0E94ED0381E08F938DB79EB781977B
:100C10000FB6F8949EBF0FBE8DBFADB7BEB711968D
:100C200081E2E5EDF1E001900D928A95E1F784E132
:100C300092E00E946F0C0FB6F894DEBF0FBECDBFDE
:100C4000B4CF80E190E00E94D90169837A838B83DD
:100C50009C831092A7011092A60180E090E0E5E04D
:100C6000F0E0EC0FFD1FE80FF91FA1E0B0E0AC0FC2
:100C7000BD1FA80FB91F2C912083019684309105C8
:100C800074F320C080E190E00E94900169837A8330
:100C90008B839C831092A7011092A60180E090E0C4
:100CA000E5E0F0E0EC0FFD1FE80FF91FA1E0B0E078
:100CB000AC0FBD1FA80FB91F2C9120830196843063
:100CC000910574F39093A7018093A60124E0AE01EF
:100CD0004B5F5F4F77CF44EF51E060E070E0C7C3F8
:100CE00084E192E00E94D20B88E090E00E944701EC
:100CF0006E8F7F8F88A399A380E190E00E94D90135
:100D00006B017C019B01AC0160918A0170918B01A8
:100D100080918C0190918D010E941D174B015C0107
:100D200020E030E0A9010E941E1918165CF420E0B2
:100D300030E040E85EE3C501B4010E94AA1787FFD6
:100D40006DC00BC020E030E040E85EEBC501B401AF
:100D50000E941E1918160CF061C0C0928A01D09230
:100D60008B01E0928C01F0928D01809189018111BB
:100D700008C040E25EE460E070E084E192E00E943E
:100D8000A30C20E030E0A901C701B6010E941E19A2
:100D900018165CF420E030E046E952E4C701B601E1
:100DA0000E941E1918165CF02DC020E030E046E9C4
:100DB00052ECC701B6010E94AA1787FF23C084E145
:100DC00092E00E944E0B8823C1F060E084E192E043
:100DD0000E942F0B1092890183E090E09093010113
:100DE0008093000110928E0110928F011092900159
:100DF0001092910182E08093880140E355E760E022
:100E000070E035C384E192E00E944E0B811133C340
:100E100061E084E192E00E942F0B2DC320E030E0DE
:100E2000A901C701B6010E941E1918165CF420E042
:100E300030E046E952E4C701B6010E94AA1787FFD5
:100E400018C00AC020E030E046E952ECC701B60104
:100E50000E941E1918166CF484E192E00E944E0B59
:100E6000811107C00E94590461E084E192E00E9470
:100E70002F0BC0928A01D0928B01E0928C01F092EC
:100E80008D01C701B6010E94E6022B013C01809151
:100E9000A2019091A301A091A401B091A5018AA300
:100EA0009BA3ACA3BDA320E030E040E251ECBC0129
:100EB000CD010E94AA178111E9C182E080938801C7
:100EC00080918901813051F120F0823009F459C1BB
:100ED0009FC205E010E068EC70E080E090E00E94C6
:100EE000CD0A20E04FEF6FEF84E192E00E94D20B39
:100EF00020E040E060E084E192E00E94D20B0150EB
:100F0000110949F783E090E090930101809300017B
:100F1000809189018F5F809389017AC220E030E05F
:100F2000A901C501B4010E941E1918165CF420E045
:100F300030E040E05FE3C501B4010E94AA1787FFDB
:100F4000C2C00BC020E030E040E05FEBC501B4015F
:100F50000E941E1918160CF0B6C020E030E040E8E0
:100F60005FE360918E0170918F018091900190916B
:100F700091010E941E179B01AC01C701B6010E949E
:100F80001E1918160CF09FC000910001109101016C
:100F9000000F111F000F111FF801E85CFE4F2081A8
:100FA000318142815381C701B6010E94AA1787FF90
:100FB0008AC0F801E85DFE4F208131814281538172
:100FC000C701B6010E941E1918160CF07CC005E07E
:100FD00010E0C12CD12C760180E190E00E94D90173
:100FE0002DEC3CEC4CE45EE30E9429199B01AC0122
:100FF000C701B6010E941E176B017C0168EC70E00E
:1010000080E090E00E94CD0A2FEF40E060E084E1B4
:1010100092E00E94D20B20E040E060E084E192E0A8
:101020000E94D20B01501109B9F6C0928E01D092E4
:101030008F01E0929001F0929101C701B6010E94E8
:10104000E6022B013C01009100011091010120E01A
:1010500030E040E05FE30E941E170E941B18F80179
:10106000EE0FFF1FE255FE4F718360831801220CC3
:10107000331C220C331CD101AE56BE4F1D0180E043
:1010800090E00E9447182FE632E143E85AE30E94BD
:101090002919F101608371838283938301501109BF
:1010A000109301010093000117FF0DC010928401FD
:1010B000109285011092860110928701809189011A
:1010C0008F5F8093890180910001909101010397C6
:1010D0000CF09EC120E030E0A901C501B4010E94DE
:1010E0001E1918165CF420E030E040E050E4C50121
:1010F000B4010E94AA1787FF8BC10BC020E030E02B
:1011000040E050ECC501B4010E941E1918160CF005
:101110007FC180908E0190908F01A0909001B0903F
:10112000910120E030E040E05FE3C501B4010E949E
:101130001E179B01AC01C701B6010E94AA1787FFC9
:1011400067C120E030E040E05FE3C501B4010E94E8
:101150001D179B01AC01C701B6010E941E1918168C
:101160000CF056C120E04FEF60E084E192E00E9475
:10117000D20B20E040E060E084E192E00E94D20BDC
:1011800047C18091840190918501A0918601B09121
:1011900087010196A11DB11D809384019093850163
:1011A000A0938601B0938701409148015091490175
:1011B000662757FD6095762F481759076A077B0702
:1011C00008F026C12E8D3F8D48A159A160914A019A
:1011D00070914B0180914C0190914D010E941D171F
:1011E00020E030E040E251E40E941E170E941B18EC
:1011F00080E090E00E94471820E030E040E251E4B7
:101200000E9429190E941B187093B7016093B601C0
:1012100080E090E00E9447182DEC3CEC4CEC5DE344
:101220000E94291920E030E040E251E40E941D179D
:101230006093A2017093A3018093A4019093A501F0
:101240000E94ED0381E08F932DB73EB72152310903
:101250000FB6F8943EBF0FBE2DBFADB7BEB7119607
:1012600081E2E5EDF1E001900D928A95E1F784E1EC
:1012700092E00E946F0C809189018F5F80938901B9
:101280000FB6F894DEBF0FBECDBFC2C0C301B2011E
:101290000E947A022B013C012AA13BA14CA15DA135
:1012A0006E8D7F8D88A199A10E941E176E8F7F8FF2
:1012B00088A399A380918801882319F08130D9F0FF
:1012C000A7C005E010E068EC70E080E090E00E94CC
:1012D000CD0A2FEF40E06FEF84E192E00E94D20B45
:1012E00020E040E060E084E192E00E94D20B0150F7
:1012F000110949F788C020E030EC4DE754E4C30100
:10130000B2010E94AA1787FF71C020E030E446E7CF
:1013100054E4C301B2010E941E1918160CF066C0F5
:1013200020E030E0A901C501B4010E941E19181681
:101330005CF420E030E040E05FE3C501B4010E94CE
:10134000AA1787FF53C00BC020E030E040E05FEBFE
:10135000C501B4010E941E1918160CF047C005E023
:1013600010E0C12CD12C760180E190E00E94D901DF
:101370002DEC3CEC4CE45EE30E9429199B01AC018E
:10138000C701B6010E941E176B017C0168EC70E07A
:1013900080E090E00E94CD0A2FEF40E060E084E121
:1013A00092E00E94D20B20E040E060E084E192E015
:1013B0000E94D20B01501109B9F6C701B6010E9473
:1013C000E6020E947A022FE632E143E85AE30E94E5
:1013D000291960930401709305018093060190938D
:1013E0000701809188018F5F8093880180910201BD
:1013F000909103019C012150310930930301209306
:10140000020197FF05C0809188018F5F809388015A
:1014100080918901833071F420E04FEF60E084E136
:1014200092E00E94D20B20E040E060E084E192E094
:101430000E94D20BC301B2010E94900220E030E072
:1014400040E05FE30E941E170E9416186B017C01AA
:101450006E8D7F8D88A199A10E941618DC01CB01A9
:10146000B6010E94250440E157E260E070E084E1AB
:1014700092E00E94A30CA5960FB6F894DEBF0FBEB3
:10148000CDBFDF91CF911F910F91FF90EF90DF9033
:10149000CF90BF90AF909F908F907F906F905F9014
:1014A0004F903F902F9008951F920F920FB60F927A
:1014B00011242F933F938F939F93AF93BF9380916A
:1014C000F7019091F801A091F901B091FA013091E2
:1014D000F60126E0230F2D3720F40296A11DB11D41
:1014E00005C029E8230F0396A11DB11D2093F60125
:1014F0008093F7019093F801A093F901B093FA015A
:101500008091FB019091FC01A091FD01B091FE0141
:101510000196A11DB11D8093FB019093FC01A09346
:10152000FD01B093FE01BF91AF919F918F913F91CB
:101530002F910F900FBE0F901F9018952FB7F89412
:101540006091F7017091F8018091F9019091FA0191
:101550002FBF08953FB7F8948091FB019091FC0153
:10156000A091FD01B091FE0126B5A89B05C02F3FBB
:1015700019F00196A11DB11D3FBF6627782F892F55
:101580009A2F620F711D811D911D43E0660F771F19
:10159000881F991F4A95D1F70895CF92DF92EF9255
:1015A000FF92CF93DF936B017C010E94AA0AEB01AB
:1015B000C114D104E104F10479F00E94AA0A6C1B61
:1015C0007D0B683E7340A0F381E0C81AD108E108A2
:1015D000F108C851DC4FECCFDF91CF91FF90EF9035
:1015E000DF90CF900895789484B5826084BD84B5EF
:1015F000816084BD85B5826085BD85B5816085BD0E
:10160000EEE6F0E0808181608083E1E8F0E0108226
:10161000808182608083808181608083E0E8F0E067
:10162000808181608083E1EBF0E080818460808351
:10163000E0EBF0E0808181608083EAE7F0E0808188
:1016400084608083808182608083808181608083E8
:101650008081806880831092C1000895089520E001
:1016600030E0A9018EE192E00C94A511CF93DF93B5
:1016700000D0CDB7DEB7BE016F5F7F4F8EE192E045
:101680000E947810892B21F481E09981911101C089
:1016900080E00F900F90DF91CF910895CF93DF936B
:1016A00000D0CDB7DEB7BE016F5F7F4F8EE192E015
:1016B0000E947810892B21F481E09A81911101C058
:1016C00080E00F900F90DF91CF910895CF93DF933B
:1016D0001F92CDB7DEB71982BE016F5F7F4F8EE1DB
:1016E00092E00E94451189810F90DF91CF9108957A
:1016F000CF93DF931F92CDB7DEB71982BE016F5F24
:101700007F4F8EE192E00E947511298130E0A0E1C7
:10171000B7E20E94221A68517A408D4E9F4F21ED08
:1017200038E140E050E00E94FA19C9010F90DF91C2
:10173000CF9108950F931F93CF93DF93CDB7DEB76B
:101740002E970FB6F894DEBF0FBECDBF8E01085F97
:101750001F4FB8018EE192E00E941511892B11F400
:1017600087E006C087E0F801982F11929A95E9F773
:10177000F801DE01119601900D928A95E1F7298119
:101780003A814B815C816D817E818F8190E02E96C4
:101790000FB6F894DEBF0FBECDBFDF91CF911F9182
:1017A0000F910895CF93DF9300D01F92CDB7DEB78E
:1017B00069834A832B83BE016F5F7F4F8EE192E086
:1017C0000E9436120F900F900F90DF91CF910895E5
:1017D000CF93DF93CDB7DEB766970FB6F894DEBF31
:1017E0000FBECDBFCA012531A8F46983422F50E056
:1017F000BC01CE0102962E8B0E94311A2E8941E047
:10180000420FBE016F5F7F4F8EE192E00E94C211D6
:1018100081E001C080E066960FB6F894DEBF0FBE8F
:10182000CDBFDF91CF910895CF93DF93CDB7DEB7D2
:1018300065970FB6F894DEBF0FBECDBF69832A83CC
:101840003B834C835D8345E0BE016F5F7F4F8EE13C
:1018500092E00E94C21181E065960FB6F894DEBF57
:101860000FBECDBFDF91CF910895CF93DF93EC01F1
:10187000642FFC01319684E1DF011D928A95E9F71E
:10188000AE018EE192E00E94A810CE01DF91CF91CF
:101890000895CF93DF93C0E0D2E084E1FE0111927E
:1018A0008A95E9F74FEF51E08EE192E00E94A8108F
:1018B0002091010260910202862F90E0A0E0B0E04A
:1018C00077276627722B2881622B20910302922BA7
:1018D000DF91CF9108958EE192E00C94E510CF93C3
:1018E000DF93CDB7DEB781E2FE013596DF010190CF
:1018F0000D928A95E1F78EE192E0DF91CF910C9401
:10190000C9118EE192E00C94DF118EE192E00C940B
:101910005712CF9353988EE192E00E943D128EE1D0
:1019200092E00E94460DCFE1C15051F061E070E0BD
:1019300080E090E00E94CD0A4B9BF6CF81E001C091
:1019400080E0CF910895CF92DF92EF92FF92CF93F4
:10195000DF93EC016A017B01539860E070E08EE157
:1019600092E00E94CF0E8AE0C816D104E104F1048F
:1019700018F4C701B60137C0B701A601CE010E9415
:10198000890C81113BC081E3C81685E7D806E104C4
:10199000F104E0F08EE1C816D104E104F10430F066
:1019A0008EE1C81AD108E108F10803C0C12CD12C7E
:1019B0007601B701A601CE010E94890CC114D104A1
:1019C000E104F104C1F0882329F318C08FE1C8169F
:1019D000D104E104F10408F44FC0C701B6016E510F
:1019E000710981099109DF91CF91FF90EF90DF900C
:1019F000CF900C94CD0A882309F43EC0D0917A0090
:101A0000DD1FDD27DD1F29F080917A008F7780931D
:101A10007A00C0B7CC1FCC27CC1F19F080B78F77C6
:101A200080BF40E050E06EE27BE081E00E94FB1569
:101A300083B7817F846083BFF8944B9B0DC083B7CD
:101A4000816083BF85B7806685BF8F7D85BF7894B1
:101A5000889583B78E7F83BF789481E00E941B16A0
:101A6000DD2329F080917A00806880937A00CC236E
:101A700019F080B7806880BFDF91CF91FF90EF9021
:101A8000DF90CF90089508950895089520914E0114
:101A90002223E1F3FC0111A20895DC01ED91FC91F8
:101AA000DB0114964D915C9115976D917C910280AC
:101AB000F381E02D09941F920F920FB60F9211241B
:101AC0002F933F934F935F936F937F938F939F9346
:101AD000AF93BF93CF93EF93FF938091C00082FDAC
:101AE0000BC0C091C60080911C0290911D022091F4
:101AF0001B02009721F40EC08091C600B8C02223BB
:101B000019F030E2C32706C0CD3731F481E080936D
:101B10001B02ADC021111AC0CE3719F4009749F449
:101B200015C0CF3721F48530910519F40FC0CD379A
:101B300069F410921A02109219021092180210926F
:101B40001702109216021092150235C010921B0255
:101B50008230910599F154F4009721F1019709F031
:101B600086C0C093180282E090E07DC08430910569
:101B700009F44EC07CF1059709F079C081E08093AB
:101B80004D0210921D0210921C0210921A02109225
:101B90001902109218021092170210921602109257
:101BA000150265C0CE3709F062C081E090E09093E5
:101BB0001D0280931C0210924D0259C0109219020E
:101BC000C0931A028091180281508093180283E01A
:101BD00090E049C08091190290911A028C2B909349
:101BE0001A028093190220911802215020931802A2
:101BF000892B19F480EE92E002C08EE492E090937B
:101C0000160280931502222361F184E090E02BC03C
:101C1000209115023091160221153105F1F0F901DC
:101C2000EB5BFF4F80819181019665E470E00E943B
:101C3000E619D901A95BBF4F4D915C9184179507B7
:101C400039F0A081B181A20FB31FCC93918380831F
:101C5000809118028150809318028091180281119E
:101C600006C085E090E090931D0280931C02FF91D6
:101C7000EF91CF91BF91AF919F918F917F916F9194
:101C80005F914F913F912F910F900FBE0F901F903A
:101C900018951F920F920FB60F9211242F933F9316
:101CA0004F935F936F937F938F939F93AF93BF9364
:101CB000EF93FF932091DC023091DD028091DE02F0
:101CC0009091DF022817390769F4609129038DE0AC
:101CD0000E94E7168091C1008F7B8093C10081E054
:101CE00080934E01FF91EF91BF91AF919F918F91A2
:101CF0007F916F915F914F913F912F910F900FBE08
:101D00000F901F9018951F920F920FB60F921124EB
:101D10002F933F935F936F937F938F939F93AF9393
:101D2000BF93EF93FF932091DC023091DD0280910D
:101D3000DE029091DF022817390759F48091C10023
:101D40008F7D8093C1008091C10080648093C10029
:101D500016C0E091DE02F091DF02E956FD4F2081CE
:101D60008091DE029091DF02019665E470E00E94AE
:101D7000E6199093DF028093DE022093C600FF9164
:101D8000EF91BF91AF919F918F917F916F915F91F3
:101D90003F912F910F900FBE0F901F901895FC014F
:101DA0006115710599F447E050E060E070E042A3EE
:101DB00053A364A375A34DE050E060E070E046A338
:101DC00057A360A771A71092290308956130710588
:101DD00079F412A213A214A215A216A217A210A699
:101DE00011A681E08093290361E08DE00C94E71651
:101DF00008958F929F92AF92BF92CF92DF92EF920F
:101E0000FF920F931F9381E08F9385E08F9387E07C
:101E10008F9383E08F9384E08F9386EC882E912CB0
:101E200092ECA92EB12C21ECC22ED12C30ECE32E59
:101E3000F12C04EC10E025EC30E047E952E060EED4
:101E400072E08EE192E00E94101583E591E090939C
:101E50001F0280931E028EE492E0909349028093C9
:101E600048028DE492E090934B0280934A021092D4
:101E70004D0287E090E0A0E0B0E0809340029093B4
:101E80004102A0934202B09343028DE090E0A0E0B3
:101E9000B0E08093440290934502A0934602B09331
:101EA00047020F900F900F900F900F901F910F917E
:101EB000FF90EF90DF90CF90BF90AF909F908F906A
:101EC0000895CF93DF93EC0140E056E960E070E0C5
:101ED0000E94241361E08DE00E94AE1641E04EA7FF
:101EE0002091DC023091DD028091DE029091DF02D0
:101EF0002817390749F440934E01609129038DE07A
:101F0000DF91CF910C94E716DF91CF9108951F9345
:101F1000CF93DF93EC01162F83E8860F833030F4E4
:101F20006DE7CE010E94CE1460E26127CE01DF9101
:101F3000CF911F910C94CE14CF92DF92EF92FF922B
:101F40000F931F93CF93DF938C01D62EC72E7A0168
:101F5000E9012134310508F04DC010924E0161E0D5
:101F60008DE00E94E7162091DC023091DD02809125
:101F7000DE029091DF022817390751F4F80162A1BF
:101F800073A184A195A16115710581059105A9F53C
:101F90006EE7C8010E94CE146C2F6E5FC8010E94CC
:101FA000870F6C2DC8010E94870F6D2DC8010E94FC
:101FB000870FD12C8D2D90E08C179D0748F4F701E9
:101FC000E80FF91F6081C8010E94870FD394F2CFF8
:101FD0006FE7C8010E94CE14F80166A177A180A521
:101FE00091A5611571058105910511F00E94CD0A39
:101FF000CE0106C08FEF9FEF03C00E94CD0AC8CF6D
:10200000DF91CF911F910F91FF90EF90DF90CF90D4
:1020100008954F925F926F927F92AF92BF92CF924C
:10202000DF92EF92FF920F931F93CF93DF93EC0118
:10203000F8948AA59BA5FC01E95BFF4F11821082F1
:10204000329711821082ECA5FDA510827894CE0102
:102050000E949C0F0E949E0A688779878A879B87C7
:10206000ECA5FDA5808181110FC00E949E0A4884C5
:1020700059846A847B8464197509860997096A15ED
:102080007B058C059D0560F3ECA5FDA5808188236B
:10209000F1F06AA57BA5FB01EB5BFF4F808191818D
:1020A000D7014D915C918417950710F440815181BF
:1020B000C8010E94311AEAA5FBA5EB5BFF4F8081A6
:1020C0009181F7019183808380E090E002C08FEFDF
:1020D0009FEFDF91CF911F910F91FF90EF90DF90D5
:1020E000CF90BF90AF907F906F905F904F9008958A
:1020F000AF92BF92CF92DF92EF92FF920F931F9316
:10210000CF93DF9300D0CDB7DEB722E030E03A8343
:10211000298344E6A42EB12CC12CD12C9E012F5F23
:102120003F4F79018B0120E030E040E050E060E378
:1021300075E00E9409100F900F90DF91CF911F91D1
:102140000F91FF90EF90DF90CF90BF90AF900895E8
:102150008F929F92AF92BF92CF92DF92EF92FF92B7
:102160000F931F93CF93DF9300D01F92CDB7DEB7AD
:102170004A0125E130E03A8329836B8354E6A52E9A
:10218000B12CC12CD12C9E012F5F3F4F79018401CE
:1021900021E030E0AE014D5F5F4F65E175E00E94E8
:1021A000091029812150F40120830F900F900F9086
:1021B000DF91CF911F910F91FF90EF90DF90CF9023
:1021C000BF90AF909F908F900895AF92BF92CF92A3
:1021D000DF92EF92FF920F931F93CF93DF9300D084
:1021E000CDB7DEB721E230E03A832983E4E6AE2EB4
:1021F000B12CC12CD12C9E012F5F3F4F79018B0157
:1022000020E030E040E050E060E175E00E9409101D
:102210000F900F90DF91CF911F910F91FF90EF9052
:10222000DF90CF90BF90AF900895AF92BF92CF92C2
:10223000DF92EF92FF920F931F93CF93DF9300D023
:10224000CDB7DEB727E030E03A832983A4E6AA2E93
:10225000B12CC12CD12C9E012F5F3F4F79018B01F6
:1022600020E030E040E050E060E170E20E940910C0
:102270000F900F90DF91CF911F910F91FF90EF90F2
:10228000DF90CF90BF90AF900895AF92BF92CF9262
:10229000DF92EF92FF920F931F93CF93DF9300D0C3
:1022A000CDB7DEB721E030E03A83298314E6A12ED2
:1022B000B12CC12CD12C9E012F5F3F4F79018B0196
:1022C00020E030E040E050E061E170E20E9409105F
:1022D0000F900F90DF91CF911F910F91FF90EF9092
:1022E000DF90CF90BF90AF900895AF92BF92CF9202
:1022F000DF92EF92FF920F931F93CF93DF9300D063
:10230000CDB7DEB721E030E03A83298304E6A02E82
:10231000B12CC12CD12C9E012F5F3F4F79018B0135
:1023200020E030E040E050E065E170E20E940910FA
:102330000F900F90DF91CF911F910F91FF90EF9031
:10234000DF90CF90BF90AF900895CF93DF9300D0F0
:1023500000D01F92CDB7DEB729833A834B835C83CD
:102360006D8325E030E0AE014F5F5F4F62E175E0C5
:102370000E949C0F0F900F900F900F900F90DF9185
:10238000CF910895242F30E0AB0164E175E00C9407
:102390009C0FCF93DF93CDB7DEB72EA1222319F088
:1023A00061E175E002C060E475E021E230E0AE0179
:1023B0004B5F5F4F0E949C0FDF91CF9108957F92FA
:1023C0008F929F92AF92BF92CF92DF92EF92FF9245
:1023D0000F931F93CF93DF93CDB7DEB7A3970FB6BD
:1023E000F894DEBF0FBECDBF4C01762E81E290E0A7
:1023F0009BA38AA3A4E6AA2EB12CC12CD12CCE017A
:1024000082967C018E010F5F1F4F20E030E040E09C
:1024100050E060E175E0C4010E940910892B91F43D
:102420007E82F40186A5882319F061E175E002C07F
:1024300060E475E02AA13BA1AE014F5F5F4FC4018C
:102440000E949C0FA3960FB6F894DEBF0FBECDBFBF
:10245000DF91CF911F910F91FF90EF90DF90CF9080
:10246000BF90AF909F908F907F900895AB0123E035
:1024700030E061E070E20C949C0FCF93DF9300D0CA
:1024800000D0CDB7DEB749835A836B837C8324E0C9
:1024900030E0AE014F5F5F4F60E070E30E949C0F41
:1024A0000F900F900F900F90DF91CF910895CF93E1
:1024B000DF931F92CDB7DEB7698321E030E0AE0134
:1024C0004F5F5F4F60E170E30E949C0F0F90DF91C0
:1024D000CF910895CF93DF931F92CDB7DEB7698375
:1024E00021E030E0AE014F5F5F4F60E070E00E949E
:1024F0009C0F81E090E00F90DF91CF910895CF92F3
:10250000DF92EF92FF920F931F93CF93DF936C01B3
:102510007B01EA016115710589F1209779F1413458
:102520005105F0F040E050E00FE310E09801241B6B
:10253000350B4E0D5F1D60E070E0C6010E949C0FE0
:102540000C171D07F1F09801205C3F4FC217D3070D
:1025500008F49E01C217D307B0F0A8018901E6CFA5
:102560009A01AB0160E070E0DF91CF911F910F9174
:10257000FF90EF90DF90CF900C949C0F80E090E064
:1025800003C0C80101C0CE01DF91CF911F910F910F
:10259000FF90EF90DF90CF900895CF92DF92EF926F
:1025A000FF920F931F93CF93DF93CDB7DEB7C05445
:1025B000D1090FB6F894DEBF0FBECDBF6C01611517
:1025C000710581F17B0100E010E0F7018491980131
:1025D0008823F1F02F5F3F4FE1E0F0E0EC0FFD1FAB
:1025E000E00FF11F80832034310529F08FEFE81AC6
:1025F000F80A8901EACF20E430E0AE014F5F5F4F77
:1026000060E070E0C6010E949C0F20E030E0EECF59
:10261000AE014F5F5F4F60E070E0C6010E949C0F0B
:10262000C80102C080E090E0C05CDF4F0FB6F894B4
:10263000DEBF0FBECDBFDF91CF911F910F91FF90F5
:10264000EF90DF90CF900895CF92DF92EF92FF92BC
:10265000CF93DF93EC016A017B01EC89FD8981E076
:1026600090E008A002C0880F991F0A94E2F78083C7
:1026700060E874E88EE190E0A70196010E94FA19E3
:1026800021503109410951095695479537952795AC
:10269000211580E1380798F0EC89FD89108260E40B
:1026A00072E48FE090E0A70196010E94FA19215090
:1026B0003109410951095695479537952795E8897C
:1026C000F9893083EA89FB89208319A2EE89FF8981
:1026D000408181E090E09C010C8C02C0220F331FEE
:1026E0000A94E2F7422B4083EE89FF8940819C01E6
:1026F0000D8C02C0220F331F0A94E2F7422B408355
:10270000EE89FF8940819C010E8C02C0220F331F8D
:102710000A94E2F7422B4083EE89FF8920810F8CD7
:1027200002C0880F991F0A94E2F780958223808364
:10273000DF91CF91FF90EF90DF90CF900895BF92FF
:10274000CF92DF92EF92FF92CF93DF93EC016A0179
:102750007B01B22EEC89FD8981E090E008A002C0E7
:10276000880F991F0A94E2F7808360E874E88EE18D
:1027700090E0A70196010E94FA1921503109410900
:1027800051095695479537952795211580E13807CA
:1027900098F0EC89FD89108260E472E48FE090E0AB
:1027A000A70196010E94FA192150310941095109E6
:1027B0005695479537952795E889F9893083EA89B1
:1027C000FB892083E88DF98DB082EE89FF894081F5
:1027D00081E090E09C010C8C02C0220F331F0A9410
:1027E000E2F7422B4083EE89FF8940819C010D8CEA
:1027F00002C0220F331F0A94E2F7422B4083EE8976
:10280000FF8940819C010E8C02C0220F331F0A9465
:10281000E2F7422B4083EE89FF8920810F8C02C0B2
:10282000880F991F0A94E2F7809582238083DF91B5
:10283000CF91FF90EF90DF90CF90BF900895CF930E
:10284000DF93FC0186859785DC01AB5BBF4FEC0114
:10285000C95BDF4F4D915C911197288139814217F7
:102860005307C1F7A689B7894C9181E090E09C019C
:10287000048C02C0220F331F0A94E2F72095242310
:102880002C93A689B7894C919C01058C02C0220F1C
:10289000331F0A94E2F7209524232C93A689B78945
:1028A0004C919C01068C02C0220F331F0A94E2F760
:1028B000209524232C93A689B7892C91078C02C0DC
:1028C000880F991F0A94E2F7809582238C93848560
:1028D0009585FC01E95BFF4F20813181329731837F
:1028E0002083DF91CF910895FC0124853585F9017E
:1028F000EB5BFF4F808191813296208131818B5B30
:102900009F4F821B930B65E470E00E94E6190895C7
:10291000FC0184859585FC01EB5BFF4F4081518173
:102920003296208131814217530741F00190F081A6
:10293000E02DE80FF91F808190E008958FEF9FEF61
:102940000895FC0184859585FC01EB5BFF4F408178
:1029500051813296208131814217530789F0A0813D
:10296000B181A80FB91F2C9180819181019665E4F6
:1029700070E00E94E61991838083822F90E0089591
:102980008FEF9FEF0895FC0181A1882329F0A4898E
:10299000B5898C9186FFFBCF11A208951F93CF9329
:1029A000DF93FC01162F26853785E901CB5BDF4FCE
:1029B00088819981019665E470E00E94E619D90149
:1029C000A95BBF4F4D915C91119784179507D1F387
:1029D000A881B981A20FB31F1C93A685B785AB5BF5
:1029E000BF4F11969C938E93A689B7892C9181E055
:1029F00090E0078C02C0880F991F0A94E2F7282BF9
:102A00002C9381E081A30488F589E02D8081806486
:102A1000808381E090E0DF91CF911F910895089528
:102A20008F929F92AF92BF92CF92DF92EF92FF92DE
:102A30000F931F93CF93DF93CDB7DEB7FC011382C3
:102A4000128288EE93E0A0E0B0E084839583A683B1
:102A5000B7838DE691E0918380837587648757877C
:102A60004687318B208B138B028BF58AE48AD78AB9
:102A7000C68AB18EA08E938E828E8F85848F888930
:102A8000858F8989868F8A89878F8B8980A3DF913B
:102A9000CF911F910F91FF90EF90DF90CF90BF905B
:102AA000AF909F908F9008950E94F30A8CB58F7B12
:102AB0008CBD8EE192E00E94610F0E944103CFE045
:102AC000D5E10E94A7042097E1F30E940F15F9CFEA
:102AD000CF92DF92EF92FF920F931F93CF93DF93EA
:102AE0006C017A01EB01E60EF71E00E010E0CE1556
:102AF000DF0561F06991D601ED91FC910190F081C3
:102B0000E02DC6010995080F191FF1CFC801DF910B
:102B1000CF911F910F91FF90EF90DF90CF9008958C
:102B2000EF92FF920F931F93CF93DF938C01FB01E2
:102B3000C0E0D0E064917F018FEFE81AF80A6623C5
:102B400061F0D801ED91FC910190F081E02DC80178
:102B50000995C80FD91FF701EDCFCE01DF91CF91B5
:102B60001F910F91FF90EF900895AF92BF92CF9277
:102B7000DF92EF92FF920F931F93CF93DF937C012D
:102B80006B01C0E0D0E000E010E0D60114968D911A
:102B90009C911597C817D90788F4D701ED91FC913E
:102BA000A080B180BE01C6010E94EA15682FC7014E
:102BB000F5010995080F191F2196E7CFC801DF918C
:102BC000CF911F910F91FF90EF90DF90CF90BF902A
:102BD000AF900895FC01248135816217730748F492
:102BE00080819181009729F0FC01E60FF71F808119
:102BF000089580E008958230E8F4E82FF0E0EE0FC9
:102C0000FF1FE65DFC4F71836083813041F080914E
:102C100069008C7F842B80936900E89A08958091E5
:102C20006900440F551F440F551F837F842B8093E9
:102C30006900E99A0895823068F4813011F0E898CB
:102C400001C0E998E82FF0E0EE0FFF1FE65DFC4FB2
:102C50001182108208951F920F920FB60F921124C5
:102C60002F933F934F935F936F937F938F939F9394
:102C7000AF93BF93EF93FF9380912A0390912B031F
:102C8000892B29F0E0912A03F0912B030995FF91FC
:102C9000EF91BF91AF919F918F917F916F915F91D4
:102CA0004F913F912F910F900FBE0F901F9018954D
:102CB0001F920F920FB60F9211242F933F934F93B1
:102CC0005F936F937F938F939F93AF93BF93EF9394
:102CD000FF9380912C0390912D03892B29F0E09193
:102CE0002C03F0912D030995FF91EF91BF91AF91C6
:102CF0009F918F917F916F915F914F913F912F9114
:102D00000F900FBE0F901F901895833081F028F41C
:102D1000813099F08230A1F008958630A9F0873093
:102D2000B9F08430D1F4809180008F7D03C0809110
:102D300080008F7780938000089584B58F7702C0DC
:102D400084B58F7D84BD08958091B0008F7703C0D6
:102D50008091B0008F7D8093B0000895CF93DF9372
:102D600090E0FC01E854FF4F2491FC01E453FF4F35
:102D70008491882349F190E0880F991FFC01E65166
:102D8000FF4FA591B49180529F4FFC01C591D49102
:102D90009FB7611108C0F8948C91209582238C9381
:102DA000888182230AC0623051F4F8948C91322FCA
:102DB000309583238C938881822B888304C0F89478
:102DC0008C91822B8C939FBFDF91CF9108950F93AD
:102DD0001F93CF93DF931F92CDB7DEB7282F30E03C
:102DE000F901EC55FF4F8491F901E854FF4F14911C
:102DF000F901E453FF4F04910023C9F0882321F027
:102E000069830E9485166981E02FF0E0EE0FFF1FB5
:102E1000E052FF4FA591B4919FB7F8948C91611146
:102E200003C01095812301C0812B8C939FBF0F900D
:102E3000DF91CF911F910F9108955058BB27AA277A
:102E40000ED0C2C1B3D130F0B8D120F031F49F3FE1
:102E500011F41EF483C10EF4E095E7FB79C1E92F6C
:102E6000C4D180F3BA17620773078407950718F077
:102E700071F49EF5DCC10EF4E0950B2EBA2FA02D57
:102E80000B01B90190010C01CA01A0011124FF2717
:102E9000591B99F0593F50F4503E68F11A16F04012
:102EA000A22F232F342F4427585FF3CF4695379511
:102EB0002795A795F0405395C9F77EF41F16BA0BD6
:102EC000620B730B840BBAF09150A1F0FF0FBB1F84
:102ED000661F771F881FC2F70EC0BA0F621F731FCD
:102EE000841F48F4879577956795B795F7959E3F2A
:102EF00008F0B3CF9395880F08F09927EE0F9795B8
:102F000087950895DF93DD27B92FBF7740E85FE30A
:102F10001616170648075B0710F4D92F93D19F9315
:102F20008F937F936F933AD2E6E7F0E01AD14CD1BA
:102F30002F913F914F915F9198D1DD2349F09058A7
:102F4000A2EA2AED3FE049EC5FE3D0785D2787DF16
:102F5000DF913AC1D9D008F481E008950CD034C192
:102F60002CD140F023D130F021F45F3F19F0F0C0B4
:102F700051115EC1F3C039D198F39923C9F3552398
:102F8000B1F3951B550BBB27AA276217730784075C
:102F900038F09F5F5F4F220F331F441FAA1FA9F312
:102FA00033D00E2E3AF0E0E830D091505040E69504
:102FB000001CCAF729D0FE2F27D0660F771F881F65
:102FC000BB1F261737074807AB07B0E809F0BB0B54
:102FD000802DBF01FF2793585F4F2AF09E3F510578
:102FE00068F0B6C025C15F3FECF3983EDCF38695F0
:102FF00077956795B795F7959F5FC9F7880F911DEE
:103000009695879597F90895E1E0660F771F881FD9
:10301000BB1F621773078407BA0720F0621B730B8C
:10302000840BBA0BEE1F88F7E095089504D06894DE
:10303000B111FEC00895E1D088F09F5790F0B92FEC
:103040009927B751A0F0D1F0660F771F881F991FFD
:103050001AF0BA95C9F712C0B13081F0E8D0B1E0EA
:103060000895E5C0672F782F8827B85F39F0B93FFA
:10307000CCF3869577956795B395D9F73EF49095FF
:103080008095709561957F4F8F4F9F4F0895E8947D
:1030900009C097FB3EF490958095709561957F4FA0
:1030A0008F4F9F4F9923A9F0F92F96E9BB2793954E
:1030B000F695879577956795B795F111F8CFFAF45E
:1030C000BB0F11F460FF1BC06F5F7F4F8F4F9F4F8F
:1030D00016C0882311F096E911C0772321F09EE8ED
:1030E000872F762F05C0662371F096E8862F70E053
:1030F00060E02AF09A95660F771F881FDAF7880F2D
:103100009695879597F90895990F0008550FAA0B82
:10311000E0E8FEEF16161706E807F907C0F01216EA
:103120001306E407F50798F0621B730B840B950BED
:1031300039F40A2661F0232B242B252B21F4089542
:103140000A2609F4A140A6958FEF811D811D0895DF
:1031500097F99F6780E870E060E008959FEF80EC4A
:103160000895DF93CF931F930F93FF92EF92DF9217
:103170007B018C01689405C0DA2EEF0176D0FE0148
:10318000E894A5912591359145915591AEF3EF01C4
:1031900066DEFE019701A801DA9479F7DF90EF90DF
:1031A000FF900F911F91CF91DF91089500240A9411
:1031B0001616170618060906089500240A94121612
:1031C0001306140605060895092E0394000C11F445
:1031D000882352F0BB0F40F4BF2B11F460FF04C0F2
:1031E0006F5F7F4F8F4F9F4F089557FD9058440F4B
:1031F000551F59F05F3F71F04795880F97FB991F56
:1032000061F09F3F79F08795089512161306140612
:10321000551FF2CF4695F1DF08C01616170618069F
:10322000991FF1CF86957105610508940895E8947A
:10323000BB2766277727CB0197F9089565DF08F448
:103240008FEF08959B01AC0160E070E080E89FE3A0
:1032500085CE0BD0B9CFAADF28F0AFDF18F09523C9
:1032600009F076CF7BCF1124E3CFBFDFA0F3959F8A
:10327000D1F3950F50E0551F629FF001729FBB275D
:10328000F00DB11D639FAA27F00DB11DAA1F649F09
:103290006627B00DA11D661F829F2227B00DA11DBC
:1032A000621F739FB00DA11D621F839FA00D611D42
:1032B000221F749F3327A00D611D231F849F600D63
:1032C000211D822F762F6A2F11249F5750408AF09C
:1032D000E1F088234AF0EE0FFF1FBB1F661F771F28
:1032E000881F91505040A9F79E3F510570F030CF94
:1032F0009FCF5F3FECF3983EDCF38695779567951B
:10330000B795F795E7959F5FC1F7FE2B880F911D45
:103310009695879597F9089511F40EF41FCF41C043
:103320006CDFD0F39923D9F3CEF39F57550B87FF6A
:1033300046D00024A0E640EA900180585695979523
:1033400028F4805C660F771F881F20F02617370748
:10335000480730F4621B730B840B202931294A2B58
:10336000A69517940794202531254A2758F7660F0C
:10337000771F881F20F026173707480730F4620BA5
:10338000730B840B200D311D411DA09581F7B901F0
:10339000842F9158880F9695879508959B01AC01CD
:1033A00058CF9F3F31F0915020F4879577956795DE
:1033B000B795880F911D9695879597F90895915027
:1033C0005040660F771F881FD2F70895AA1BBB1BBA
:1033D00051E107C0AA1FBB1FA617B70710F0A61B15
:1033E000B70B881F991F5A95A9F780959095BC0136
:1033F000CD010895A1E21A2EAA1BBB1BFD010DC031
:10340000AA1FBB1FEE1FFF1FA217B307E407F50794
:1034100020F0A21BB30BE40BF50B661F771F881F70
:10342000991F1A9469F760957095809590959B0106
:10343000AC01BD01CF010895EE0FFF1F0590F4917F
:10344000E02D0994A29FB001B39FC001A39F700D0E
:10345000811D1124911DB29F700D811D1124911D9C
:103460000895FB01DC0102C001900D9241505040D3
:08347000D8F70895F894FFCF8E
:1034780003001E000000803F5A48C0BAFEF13E3EDD
:1034880061CF0CC1A46895440000803FD9CE873F26
:103498007B148E3F8941903F00005C420000A041B0
:1034A8000000A0400000A0400000964200005C42DE
:1034B8000000A0410000A0411E0000009042010051
:1034C8000000006A127F12CD124D0D7414A11488E9
:1034D80014460D430D440D450D00000000CE146840
:1034E800159015B5157414A1148814C31424139FCA
:0434F800131F14008A
:00000001FF
